:020000040800F2
:1000000048050020052E0008D1010008D301000892
:10001000D5010008D7010008D90100080000000040
:10002000000000000000000000000000DB010008EC
:10003000DD01000800000000DF010008A92E000813
:10004000E3010008E3010008E3010008E301000800
:10005000E3010008E30100081D050008230500086E
:10006000290500082F050008A5060008E30100087F
:10007000E3010008E3010008E3010008E3010008D0
:10008000E3010008E3010008E3010008E3010008C0
:10009000E3010008E3010008E3010008B5060008D9
:1000A000E3010008E3010008E3010008E3010008A0
:1000B000652F0008E3010008E3010008E3010008E0
:1000C000E3010008B11D0008A51D0008E3010008B8
:1000D000E3010008E3010008E3010008E301000870
:1000E0006D060008E3010008E3010008E3010008D1
:1000F000E3010008E3010008E3010008E301000850
:10010000E3010008E3010008E3010008E30100083F
:10011000E3010008E3010008E3010008E30100082F
:10012000E3010008E3010008E3010008E30100081F
:10013000E3010008E3010008E3010008E30100080F
:10014000E3010008E3010008E3010008E3010008FF
:10015000E3010008E3010008E3010008E3010008EF
:10016000E3010008E3010008E3010008E3010008DF
:10017000E3010008E3010008E301000800000000BB
:10018000E3010008E3010008DFF80CD000F02EF8CE
:1001900000480047DD38000848050020FFF7F8FF59
:1001A000F4460848D0F81B40D0F81F5006E0E0683D
:1001B00040F0010394E8070098471034AC42F6D3AE
:1001C00060470000ED0100080648804706480047E8
:1001D000FEE7FEE7FEE7FEE7FEE7FEE7FEE7FEE7F7
:1001E000FEE7FEE7212F000889010008064C074DB5
:1001F00006E0E06840F0010394E8070098471034F7
:10020000AC42F6D3FFF7C4FFB4390008D439000874
:100210002DE9F05F0546002092469B46884606463B
:10022000814640241BE0284641464746224600F0CE
:100230005AF853465A46C01A914110D311461846EF
:10024000224600F041F82D1A67EB01084F4622467E
:100250000120002100F038F817EB00094E41201E64
:10026000A4F10104DFDC484631462A46434600F04B
:1002700000B830BCBDE8C09FD2B201E000F8012B4D
:10028000491EFBD270470022F6E710B513460A4616
:1002900004461946FFF7F0FF204610BD30B50B4667
:1002A000014600202022012409E021FA02F59D42A6
:1002B00005D303FA02F5491B04FA02F52844151E7A
:1002C000A2F10102F1DC30BD202A04DB203A00FA61
:1002D00002F1002070479140C2F1200320FA03F39D
:1002E000194390407047202A04DB203A21FA02F09B
:1002F0000021704721FA02F3D040C2F12002914060
:100300000843194670470109A1EB810100EB410048
:10031000C0B270470A21B0FBF1F101EB410100EBE3
:100320004100C0B270470000F0B5374DEA6C42F0B2
:100330000102EA64EA6C002311F47F4F00D0082325
:100340004FF2F002114201D043F004034CF6CC42CC
:10035000114201D043F002034AF6AA22114201D011
:1003600043F00103012202FA03F406680C404FEA4D
:10037000430E4FF0030C0CFA0EFC002126EA0C068B
:1003800001FA0EF737430760C66802FA0EF226EA52
:100390000C063243C260286E40F001002866286EC9
:1003A0001A4823F00302024490689B071D0F0F2395
:1003B000AB4098439060164A1068A04320431060F9
:1003C000121D1068A0431060121D1068A043106039
:1003D000121D1068A043204310600E480068C0F34F
:1003E0000220021D072A01D2002000E0C01E814029
:1003F0000801094981F800044FF0E0214FF48060C2
:10040000C1F80001F0BD00000010024000000140F2
:10041000000401400CED00E00AE000E01CB51321EF
:100420000448CDE9000101230022D021024800F058
:100430009BFB1CBD14000020FC00002070B586B0A2
:100440000DF1280C9CE870008DF80F308DF812002B
:100450008DF80E408DF811108DF810208DF80D508C
:100460000D4C8DF80C60002203AB985CFFF752FF37
:10047000A054521CD2B2072AF7D301250726CDE992
:10048000004601230022D0210448029500F0D6FB4B
:100490000028F4D106B070BD14000020FC0000203C
:1004A000FEB50D46FFF736FF1A4CA0722846FFF73F
:1004B00031FF60721046FFF72DFF20721846FFF7DC
:1004C00029FF0426E071E51D4FF6FF740095CDE984
:1004D000016401230722D0210F4800F0AFFB002860
:1004E000F4D10C4814300226417A00F1090541F09C
:1004F00005014172817A01F0FC0181720095CDE91C
:10050000016401230E22D021034800F097FB00284C
:10051000F4D1FEBD14000020FC000020012000F0FA
:1005200005B9022000F002B9042000F0FFB808204D
:1005300000F0FCB87CB50020114E009001900F2413
:10054000304602F0AFFC0F4D401C0CD0304602F09C
:10055000A9FCA84211D1FE2002F01AFA02F066FCB2
:1005600050B11F2409E0009569463046019502F01C
:100570004DFA10B9002400E0102420467CBD000094
:10058000F8F70708504D554A10B51C4C98B0207C20
:10059000012826D100202074A07808280BD2DFE89B
:1005A00000F00A0406222426282A15A100E016A13C
:1005B00005A802F0A9FF0DF1040CA3796279217955
:1005C00005A88CE80F00E07800902278637810A1ED
:1005D0000AA802F5FA6202F097FF0AA915A002F034
:1005E00083FF18B010BD14A1E2E716A1E0E718A13F
:1005F000DEE719A1DCE71BA1DAE7000028000020F4
:100600004D4F4E4441590000545545534441590003
:10061000253032643A253032643A25303264202560
:100620007320253032643A253032643A2530326402
:100630000D0A0000257300005745444E45534441C0
:1006400059000000544855525344415900000000DD
:10065000465249444159000053415455524441596E
:100660000000000053554E444159000010B54FF4AE
:10067000806000F05BF84FF4006000F057F84FF432
:10068000805000F053F84FF4005000F04FF84FF452
:10069000804000F04BF8BDE810404FF4004000F0FF
:1006A00045B8000002491020086002F0BFBB0000FE
:1006B0001404014010B5202000F038F8402000F06C
:1006C00035F8802000F032F84FF4807000F02EF8FA
:1006D000BDE810404FF4007000F028B810B590F855
:1006E00025100024022903D00421C16301241AE04B
:1006F00001680A6822F00E020A6001680A6822F0A6
:1007000001020A6090F84410036C01F01C02012100
:1007100001FA02F25A6080F82510002180F82410B6
:10072000816B01B18847204610BD7047044910B560
:100730000A68024202D00860FFF7F7FF10BD000010
:10074000140401402DE9F84FDFF898B100234FF071
:10075000010C4FF0030A4FF00F090BF1040EB9E042
:100760000CFA03F4224070D04D68022D01D0122DF6
:100770000ED1DD0800EB8508D8F820505E07F70E93
:1007800009FA07F6B5430E69BE402E43C8F820604B
:1007900007685E0091F804800AFA06F508F003087D
:1007A000AF4308FA06F848EA0708C0F800804F6827
:1007B000012F05D0022F03D0112F01D0122F13D1FA
:1007C000D0F80880CF6828EA0508B74047EA08074C
:1007D0008760D0F804800F7928EA0408C7F300176F
:1007E0009F4047EA08074760D1F804806FEA08078E
:1007F000BF0706D1C76AA743C8F3C0049C403C4367
:10080000C462C468AC438D68B5402543C5604C687C
:10081000E4005ED5344C256E45F001052566246E56
:1008200023F0030504F001040094304C2E19B46841
:100830009D072F0F09FA07F5AC43B0F1904F05D093
:100840002B4DA84204D101251CE042E0002519E00F
:10085000284DA84201D1022514E0274DA84201D11C
:1008600003250FE0254DA84201D104250AE0244DBF
:10087000A84201D1052505E0224DA84201D1062557
:1008800000E00725BD402543B560DBF800405D462C
:100890004E689443F60300D514432C60DEF8004004
:1008A00075464E689443B60300D514432C600D4D35
:1008B00008352C684E689443F60200D514432C602A
:1008C000084D0C352C684E689443B60200D514438D
:1008D0002C605B1C0A6832FA03F57FF441AF00F02C
:1008E00013B8000000040140001002400000014065
:1008F0000004004800080048000C004800100048B0
:10090000001400480018004818BCBDE8E08F000043
:1009100001488068704700000000002090F84120E6
:10092000202A24D190F84020012A20D0012280F8EA
:100930004020242280F841200268136823F001033C
:1009400013600268136823F480531360026813680D
:100950000B43136001680A6842F001020A6020211B
:1009600080F84110002180F84010084670470220AE
:10097000704790F84120202A22D190F84020012A87
:100980001ED0012280F84020242280F841200268F5
:10099000136823F0010313600268136823F4706383
:1009A00043EA0121116001680A6842F001020A600D
:1009B000202180F84110002180F84010084670473F
:1009C000022070477047704730B403689A6919680D
:1009D000D243D40509D4CC43240606D4446C44F055
:1009E000010444644FF48074DC6153050AD4CB43A2
:1009F0001B0607D4436C43F00803436404684FF4B8
:100A00008063E36192050AD4C943090607D4416CA7
:100A100041F00201416402684FF40071D161416C00
:100A200011F00B0F02D030BC01F08ABA30BC704715
:100A3000026891691268436B002B00D01847704719
:100A40007047000070B5040004D094F84100002500
:100A500010B106E0012070BD84F84050204600F03F
:100A60009DF9242084F841002068016821F00101EB
:100A700001606068216820F070600861206881680A
:100A800021F400418160E0680128A06807D040F4AB
:100A9000044021688860E068022803D006E040F442
:100AA0000040F6E721684FF4006048602068416824
:100AB000114A114341602068C16821F40041C160BE
:100AC000D4E904010843A16940EA01202168C86013
:100AD000D4E907010843216808602068016841F0F3
:100AE000010101606564202084F84100256384F8D9
:100AF0004250002070BD0000008000027047704727
:100B00007047000000B5154900680968884224D183
:100B1000134A01201074A2F114031878FFF7F3FBB5
:100B200090715878FFF7EFFB50719878FFF7EBFB67
:100B30001071D878FFF7E7FB90701879FFF7E3FBA7
:100B4000D0705879FFF7DFFB50709879FFF7DBFB27
:100B50001070987B5072D87B907200BDFC00002012
:100B600028000020704700002DE9FC470446DDE91D
:100B70000A7690F84100984691468A46202850D13E
:100B80003FB336B320688069C043000449D594F868
:100B90004000012845D0012084F840002434FFF7AC
:100BA000B7FE222161774021A1770025256244F814
:100BB000067B26801C49C4F802101C49C4F80A10A0
:100BC00034F82A19FF2908D9FF2121854FF08076B2
:100BD00007E04FF4007060640FE0618D21854FF0F5
:100BE00000761921CDE9001043464A465146204679
:100BF00001F0C6FC20B184F84050012000F01AB882
:100C00000B48009094F8282033465146204601F0C6
:100C10001DFE84F840500221204601F00DF900200D
:100C2000ECE70220EAE700000000FFFF592400087B
:100C3000002400800CBCBDE8F08700002DE9FF4FC8
:100C400083B00446DDE9108790F84100DDF8489054
:100C50009A469346202871D15FEA080014D09FB1CC
:100C600094F84000012869D0012084F84000FFF783
:100C70004FFE0646012200901923D103204601F0C1
:100C8000FBFD00286ED103E04FF40070606469E062
:100C9000212084F84100402084F84200002565644A
:100CA000C4F8248067856563CDE9009653465A46AB
:100CB0002046049901F096FC10B184F8405051E0B0
:100CC000608DFF274FF080784FF0007AFF2804D91D
:100CD00027853A464346009505E0608D20850095BE
:100CE00094F8282053462046049901F0AFFD32467F
:100CF0004946204601F012FEA0BB606A21680078D8
:100D00008862606A401C6062608D401E6085208D34
:100D1000401E80B22085618DD9B1D0B94B460022EA
:100D200080212046009601F0A7FDD8B9608DFF28EC
:100D300005D927853A464346009506E026E0608DB2
:100D40002085009594F8282053462046049901F008
:100D50007DFD608D0028CAD132464946204601F00B
:100D6000B7FD18B1012007B000F014B820682021A9
:100D7000C16120684268064B1A40426084F8411005
:100D800084F8425084F840500020ECE70220EAE763
:100D900000E800FE30BCBDE8C08F000010B586B092
:100DA000044614216846FFF76EFA1B492068884202
:100DB0002FD11A4CE06C40F00200E064E06C694610
:100DC00000F0020005904FF4406000901220019066
:100DD0000120029003200390042004901048FFF7A4
:100DE000B1FCA06D40F48000A065A06D002200F46D
:100DF000800005901146212000F07AF8212000F0B3
:100E000069F800221146222000F072F8222000F03A
:100E100061F806B010BD000000580040001002400C
:100E200000040048704770470248816842681144D6
:100E30008160704700000020094810B50168002457
:100E400041F480710160032000F072F8002000F08E
:100E500009F808B1012401E000F026F8204610BD91
:100E60000020024070B50E4E05460024706898B10F
:100E70004FF47A71B1FBF0F00A490968B1FBF0F068
:100E800000F0F2FD40B9102D06D200222946501E76
:100E900000F02EF8356000E00124204670BD00000F
:100EA000000000200C000020094808B5016E41F048
:100EB00001010166016E01F001010091816D41F0B7
:100EC00080518165806D00F08050009008BD000069
:100ED00000100240002809DB00F01F0201219140B0
:100EE0004009800000F1E020C0F8001170470000C8
:100EF000F0B40E4B1B680C46C3F30223C3F1070585
:100F0000042D00D90425191D072901D2002300E072
:100F1000DB1E012606FA05F1491E214099409E403C
:100F2000761E16403143F0BC02F002BB0CED00E02F
:100F3000064900F0070208684FF6FF03184040EA30
:100F40000220034A10430860704700000CED00E0E7
:100F50000000FA051649B0F5007F0868C0F341208B
:100F600009D0022805D0086820F4C06040F48060F1
:100F70000860002070470128FBD0086820F4C0609A
:100F800040F4007008600B483222006850430A4A5F
:100F9000B0FBF2F0401C00E0401E4A69520501D54A
:100FA0000028F9D148694005E3D5032070470000C7
:100FB000007000400C00002040420F000248006812
:100FC00000F4C06070470000007000402DE9F84F49
:100FD000044600270088E54D3E46010504F1200B3C
:100FE0001DD5606E78B1B0F5800F11D0B0F5000F4F
:100FF00004D0B0F5400F22D001270FE0E86840F49C
:101000008030E8601BE00021201D01F0A3FD03E01B
:101010000021584601F034FE070010D03E462088DB
:10102000C00426D5A06EC0B1B0F1807F1AD0B0F157
:10103000007F0DD0B0F1407F19D0012718E0D5F81E
:101040008800616E20F440000843C5F88800E6E798
:10105000E86840F48030E86009E00021201D01F0DC
:1010600079FD03E00021584601F00AFE0746F7B17A
:101070003E46206880033AD5A86D4FF00008C000B6
:1010800009D4A86D40F08050A865A86D4FF0010804
:1010900000F080500090DFF8D8A2DAF8001041F498
:1010A0008071CAF80010FFF733FC814610E0D5F8D4
:1010B0008800A16E20F040700843C5F88800D8E78A
:1010C000FFF726FCA0EB0900022801D9032705E061
:1010D000DAF80000C005F3D5002F7CD04FEA0706F0
:1010E000B8F1000F03D0A86D20F08050A8652078DB
:1010F000C00707D0D5F88800A16B20F00300084393
:10110000C5F888002078800707D5D5F88800E16BFE
:1011100020F00C000843C5F888002078400707D568
:10112000D5F88800216C20F030000843C5F888000D
:101130002078000707D5D5F88800616C20F0C00042
:101140000843C5F888002078C00607D5D5F8880080
:10115000A16C20F440700843C5F888002078800610
:1011600007D5D5F88800E16C20F440600843C5F845
:1011700088002088800507D5D5F88800E16D20F427
:1011800040200843C5F888002088400507D5D5F8D9
:101190008800216E20F440100843C5F888002078AC
:1011A000400607D5D5F88800216D20F4405008434B
:1011B000C5F888002078000607D5D5F88800616D4D
:1011C00020F440400843C5F888002088C00509D5B0
:1011D000D5F8880000E01CE0A16D20F44030084301
:1011E000C5F8880020884FF0006780044FF08068C1
:1011F0004FD5D5F88800E16E20F040600843C5F86F
:101200008800E06EB8423CD1E86840F48010E860A5
:101210003FE0D5F8900010F4407015D0D4F8841059
:10122000814211D0D5F89000D5F8901020F440708C
:1012300041F48031C5F89010D5F8901021F4803138
:10124000C5F89010C5F89000C00710D0FFF760FBFC
:10125000074641F2883906E0FFF75AFBC11B4945B2
:1012600001D903263CE7D5F890008007F4D5D5F8DE
:101270009000D4F8841020F440700843C5F8900022
:101280002EE7404505D10121201D01F063FC00B18E
:1012900006462068000317D5D5F88800216F20F096
:1012A00040600843C5F88800206FB84204D1E86860
:1012B00040F48010E86007E0404505D10121201D81
:1012C00001F048FC00B106462068400317D5D5F868
:1012D0008800616F20F040600843C5F88800606FA7
:1012E000B84204D1E86840F48010E86007E0404567
:1012F00005D10121201D01F02DFC00B106462088FA
:1013000040041AD5D5F88800A16F20F0405008435A
:10131000C5F88800A06FB0F1805F03D0B0F1005F26
:1013200005D00AE00221201D01F014FC03E0022197
:10133000584601F0A5FC00B106462088000407D5F8
:10134000D5F88800E16F20F080400843C5F8880098
:101350002068C00307D555F8880FD4F8801020F016
:10136000004008432860304600F004B800100240F6
:101370000070004018BCBDE8E08F00002DE9F04788
:101380000F46050058D0404E306800F00700B842C4
:1013900009D2306820F0070038433060306800F030
:1013A0000700B84248D12878384CC0072CD068686C
:1013B000032811D0022812D0216898B149050029CC
:1013C0003ADAA16821F003010143A160FFF7A0FA16
:1013D000804641F2883910E021688901EFE72168F1
:1013E0008903ECE78907EAE7FFF792FAA0EB080127
:1013F000494502D90320BDE8F087A068696800F07C
:101400000C00B0EB810FEFD12878800705D5A068DC
:10141000A96820F0F0000843A060306800F00700E1
:10142000B8420BD9306820F007003843306030688C
:1014300000F00700B84201D00120DCE7287840071F
:1014400005D5A068E96820F4E0600843A06028782A
:10145000000706D5A068296920F4605040EAC10061
:10146000A06000F03FF8A168094AC1F30311515C84
:1014700001F01F01C8400749086007480068BDE83F
:10148000F047FFF7EFBC00000020024000100240D0
:101490006C3900080C0000200000002005480649B7
:1014A00000688968054AC1F30221515C01F01F01FF
:1014B000C84070470C00002000100240AC39000802
:1014C0000548064900688968054AC1F3C221515C94
:1014D00001F01F01C84070470C00002000100240BE
:1014E000AC39000870B52549002318468A68CC68D5
:1014F00012F00C0204F00306214C4FEA640509D0F7
:101500000C2A05D0042A32D0082A00D1284670BD02
:10151000012E10D10B681B0704D4D1F89430C3F30B
:10152000032302E00B68C3F30313164E56F823306F
:10153000DAB10C2AEBD1C86800F00300022818D0F9
:10154000032818D01846CA68CB68C2F30212C3F346
:1015500006234343521CB3FBF2F2C868C0F3416058
:10156000401C4000B2FBF0F070BD184670BD204634
:1015700070BD2046E7E72846E5E70000001002407E
:101580000024F4007C3900082DE9F84304006ED0F3
:10159000FD4DA86800F00C06E86800F0030720780D
:1015A000C00663D576B10C2E01D1012F0AD0A069F7
:1015B0000028286878D040F001002860FFF7A8F9DB
:1015C00080465BE02868800702D5A0690028DED04D
:1015D000216A2868000703D5286800F0F00004E0BD
:1015E000D5F89400F02202EA1010814216D908467C
:1015F00001F0CAFB00283AD1286840F008002860B2
:101600002868216A20F0F000084328606868E169D2
:1016100020F47F4040EA0120686015E0286840F02F
:10162000080028602868216A20F0F000084328603C
:101630006868E16920F47F4040EA01206860206A20
:1016400001F0A2FB0028D6D1FFF74CFFA968CF4AD2
:10165000C1F30311515C01F01F01C840CC4908607F
:10166000CC480068FFF7FEFB00287DD12DE0C9E0E3
:10167000FFF74EF9A0EB0800022876D8286880070B
:10168000F6D5286840F0080028602868216A20F014
:10169000F000084328606868E16920F47F4040EA70
:1016A0000120686011E0FFE720F001002860FFF7EB
:1016B0002FF9804606E000BFFFF72AF9A0EB0800EB
:1016C0000228DAD828688007F6D42078C00740D0EE
:1016D000082E18D00C2E01D1032F14D06068B0F55D
:1016E000803F17D0B0F5A02F286817D020F48030A5
:1016F0002860286820F4802028606068E0B1FFF747
:1017000007F9804614E02868800322D56068002825
:1017100078D01EE0286840F48030EDE740F4802067
:101720002860F7E7FFF7F4F8A0EB08006428A4D8D6
:1017300028688003F6D50CE0FFF7EAF8804605E05C
:10174000FFF7E6F8A0EB0800642896D82868800325
:10175000F6D4207880073BD5042E11D00C2E01D171
:10176000022F0DD0E06801E03EE19FE000282868EC
:101770001ED040F480702860FFF7CAF807460CE0DE
:10178000286840050CD5E0680028C1D008E000BFFB
:10179000FFF7BEF8C01B022893D828684005F7D58C
:1017A0006868217C20F0F85040EA016068600FE032
:1017B00020F480702860FFF7ABF8074605E000BF13
:1017C000FFF7A6F8C01B022870D828684005F7D498
:1017D0002078000729D560690028D5F8940012D038
:1017E00040F00100C5F89400FFF792F8074604E0C6
:1017F000FFF78EF8C01B022858D8D5F89400800750
:10180000F6D512E029E120F00100C5F89400FFF7B9
:101810007FF8074605E000BFFFF77AF8C01B0228F3
:1018200044D8D5F894008007F6D42078400768D5CE
:10183000A86D0027C00008D4A86D40F08050A865AE
:10184000A86D012700F08050009053480168C90539
:1018500012D40168814641F480710160FFF758F8A5
:10186000804605E0FFF754F8A0EB080002281DD8D9
:10187000D9F80000C005F5D5A068012817D00528C3
:10188000D5F8900018D020F00100C5F89000D5F8E8
:10189000900020F0040000BFC5F89000A06841F25D
:1018A0008839D0B1FFF734F8804611E06BE0D5F805
:1018B000900040F00100EFE740F00400C5F8900010
:1018C000F5E700BFFFF724F8A0EB080149455AD817
:1018D000D5F890008007F5D50EE0FFF719F880469F
:1018E00006E000BFFFF714F8A0EB080149457AD8DD
:1018F000D5F890008007F5D41FB1A86D20F0805076
:10190000A865A06AF0B30C2E75D00228286820F0D4
:101910008070286004D0286810F0205F51D054E017
:10192000FEF7F6FF064604E0FEF7F2FF801B0228F2
:1019300059D828688001F7D4D4E90B016FF00F0261
:1019400002EB01110843A18F5204490802EB4151F7
:10195000626B41EA0221084394F840104FF07E4246
:10196000490802EB41610843A16B090940EA414083
:10197000E9680A4A11400843E860286840F080702E
:1019800028600DE06BE02EE0001002406C3900088A
:101990000C00002000000020007000408C809DF9A9
:1019A000E86840F08070E860FEF7B2FF044604E0AB
:1019B000FEF7AEFF001B022815D828688001F7D576
:1019C0004DE0E86820F00300E860E8682549084039
:1019D000E860FEF79DFF044609E000BFFEF798FFB0
:1019E000001B022803D90320BDE8F88303E0286820
:1019F0008001F3D433E00128F6D0E868E26A00F011
:101A00000301914229D1216B00F0700209011039C4
:101A1000914222D1626B00F4FE41B1EB022F1CD146
:101A2000A26B00F40031072A01D0012200E000225D
:101A3000914212D1A18F00F4C00249084905A1F5D5
:101A40000011914209D194F8401000F0C06049089B
:101A50004906A1F10071814201D00120C4E70020B4
:101A6000C2E70000FFFFEEFE10B5401EB0F1807F20
:101A700001D3012010BD4FF0E02460610F216017F9
:101A800001F056FD0020A06107202061002010BD5C
:101A900070B590F83C20012A24D0012480F83C4005
:101AA000022280F83D200268536895680E4EB242CB
:101AB00002D00E4EB24203D123F470064B6833437A
:101AC00023F070060B688968334325F080052943AD
:101AD00053600268916080F83D40002180F83C101E
:101AE000084670BD022070BD002C0140003401404A
:101AF00010B5040003D094F83D0010B107E00120B8
:101B000010BD002084F83C00204600F00DF80220B3
:101B100084F83D00211D206801F034FA012084F88A
:101B20003D00002010BD000008B50068B0F1804FF6
:101B300012D10A48816D41F001018165806D00225A
:101B400000F00100009011461C20FFF7D1F9BDE81C
:101B500008401C20FFF7BEB908BD0000001002407D
:101B600070B5044690F83C00012817D0012584F890
:101B70003C50022084F83D00226890682E4B1840AB
:101B800020F47F4090600868502830D00DDC202879
:101B90004DD005DC98B310283BD148E0022070BD41
:101BA000302844D0402834D139E0602828D070282B
:101BB00006D0B0F5805F2CD0B0F5005F29D10AE0E7
:101BC000CB68D1E90121206801F049FA20688168D9
:101BD00041F0770109E0CB68D1E90121206801F0EB
:101BE0003EFA2068816841F48041816011E0CA6852
:101BF0004968206801F045FA5021206807E016E0A6
:101C0000CA684968206801F04DFA6021206801F037
:101C100030FA84F83D50002084F83C0070BDCA685A
:101C20004968206801F02DFA40212068EFE722681A
:101C300001461046EBE7000088FFFEFF10B5026882
:101C4000044631B1042908D0082931D00C2908D123
:101C500032E0D06840F0020002E0D06840F00400BA
:101C6000D0600122206801F0EDF915482168814219
:101C70000BD01448814208D01348814205D0134844
:101C8000814202D01248814203D1486C40F40040A6
:101C90004864206881680F4A1140062906D0B1F5D2
:101CA000803F03D0016841F001010160002010BDB8
:101CB000D06840F00800D3E7D06840F01000CFE7CC
:101CC000002C01400034014000400140004401402C
:101CD000004801400700010010B5040002D0606F09
:101CE00010B107E0012010BD002084F870002046EC
:101CF00000F026F8242060672068016821F00101C7
:101D00000160204601F070FA0128ECD0606A10B141
:101D1000204601F0D9F92068416821F490414160E2
:101D20002068816821F02A0181602068016841F003
:101D3000010101602046BDE8104001F029BA000011
:101D400010B586B0044614216846FEF79CFA134984
:101D5000206888421FD11248816D41F400318165AD
:101D6000816D01F400310591C16C41F00101C16444
:101D7000C06C694600F0010005900C200090022024
:101D800001900020029003200390072004904FF060
:101D90009040FEF7D7FC06B010BD000000440040A4
:101DA000001002400148FEF70FBE0000FC000020BA
:101DB0000148FEF73DBE0000FC00002010B5806A1F
:101DC0000021826B9163C26B916390F8411060298E
:101DD00002D0FEF735FE10BD202180F84110FEF73D
:101DE000F1FD10BD10B50022CC074FF0280306D03E
:101DF00090F84140422233EA040400D0F2228C07DA
:101E000007D590F8414042F04402A34301D042F08C
:101E1000B0024B0701D542F0B80211238B4301D128
:101E200042F0900212238B4301D142F0600200681D
:101E300001689143016010BD30B5144D1223446B0D
:101E400000228B43AC4202D0114DAC420BD14C0767
:101E500000D5B82211248C4301D142F0900283B9FD
:101E600042F060020DE04C0700D5B822CC0701D04B
:101E700042F0F202890701D542F0F4020BB942F0B8
:101E80002002006801681143016030BD4923000849
:101E90004926000801688A69D243920701D40022CA
:101EA0008A6200688169C943C90703D0816941F02A
:101EB0000101816170472DE9F041044690F841002D
:101EC0002821814320684FF000054FF0080304D01B
:101ED000C36184F84050BDE8F0818169C1F30047D7
:101EE0008169FE2202EA11468168C1F30902C168D4
:101EF000D4F80CC001F0FE01BCF1020F17D14FF075
:101F0000060C06F006060CEAD21C66450ED1A16C42
:101F1000491CA164A16C0229DDD1A564C36184F8C8
:101F2000405039462046FEF74EFDD4E70E460421C8
:101F30002046FFF757FF84F840503246F1E7000093
:101F400070B5044690F84100002584F84250314AAB
:101F5000E2626585626C0A4362642026282825D0E7
:101F6000292823D02A2821D007212046FFF73AFF2D
:101F700094F84100602801D084F8416025636563CE
:101F8000206801684A04244902681AD522F4804274
:101F90000260A06B002833D0816384F84050A06BAE
:101FA000FEF79CFB00282BD0A06B1CE003212046F1
:101FB000FFF718FF282084F8410025631748606365
:101FC000DEE7120413D5026822F400420260E06BDF
:101FD000002815D0816384F84050E06BFEF77EFB4B
:101FE00000280DD0E06B816BBDE87040084794F885
:101FF0004100602805D084F840502046FEF720FDBF
:1020000070BD84F8416084F840502046FEF7DAFC49
:1020100070BD00000000FFFFBD1D0008252700085F
:1020200070B504461548E06200252563202084F839
:10203000410084F84250C8436563400711D42068CA
:10204000406A616A0870606A401C6062208D40B11D
:10205000401E2085608D401E6085606C40F004004D
:10206000606407212046FFF7BDFE21681020C8618B
:1020700084F840502046FEF741FD70BD0000FFFF90
:1020800070B5044600682026C66120684268274B68
:102090001A4042600025256325486563E062C84315
:1020A000C00606D421681020C861606C40F00400AE
:1020B00060642046FFF7EEFE03212046FFF792FE04
:1020C000606C94F84110602900D028B1616C204602
:1020D000BDE87040FFF734BF94F84100212811D0CB
:1020E00094F8410022280CD184F8416094F8420011
:1020F00084F84250402884F84050204613D0FEF720
:10210000FEFC70BD84F8416094F8420084F84250AF
:10211000402884F84050204602D0FEF7F1FC70BD04
:10212000FEF720FD70BDFEF7EDFC70BD00E800FE7F
:102130000000FFFF70B50025044680F8425090F87B
:1021400041102020212984F841000CD01220206366
:10215000022120466563FFF745FE84F84050204683
:10216000FEF7CDFC70BD1120206301212046656380
:10217000FFF738FE84F840502046FEF7C1FC70BDE2
:102180002DE9F04104460068056820270E46C76126
:1021900007212046FFF726FE2068416841F40041F0
:1021A000416020684168304A114041602046FFF795
:1021B00071FEE843410401D4A06B02E0000404D4A2
:1021C000E06B10B1006840686085F04340070FD4B1
:1021D000206826F00406406A616A0870606A401C44
:1021E0006062208D20B1401E2085608D401E60857C
:1021F000608D18B1606C40F00400606400252563B8
:1022000084F842506563606C68B1616C2046FFF7EA
:1022100097FE94F84100282814D131462046BDE8A5
:10222000F041FFF7FDBEE06A104EB0420CD02046F0
:1022300000F01EF8E66284F8417084F840502046B1
:10224000FEF75CFCBDE8F08194F8410084F8417031
:10225000222884F84050204602D0FEF7E4FDF1E742
:10226000FEF7E0FDEEE7000000E800FE0000FFFFE3
:1022700070B50025044680F8425090F8411028209F
:10228000292911D094F841102A290CD184F8410051
:102290002220206302212046FFF7A4FD84F840504D
:1022A0002046FEF7BFFD70BD84F841002120206369
:1022B00001212046FFF796FD84F840502046FEF7A6
:1022C000B2FD70BD2DE9F0410446006890460E460F
:1022D0008069C043C00633D4002520272068806968
:1022E000C043800615D5701CF8D0FEF711FBA0EB9B
:1022F0000800B04201D8002EF0D154F8440F40F04D
:10230000200044F804096770A57025700120BDE81D
:10231000F08121681020C8612068C7612046FFF75E
:10232000B9FD54F8440B4168064A114041602068E9
:1023300040F0040044F820096777A5772577E5E7A2
:102340000020E4E700E800FEF8B5044690F84000FD
:1023500001281AD0012084F84000CB43DE064FF05C
:1023600000056FEA020012D4C20610D421681020C2
:10237000C861606C40F00400606412212046FFF7E1
:102380005BFD2046FFF786FD5FE00220F8BD314A85
:102390001E0638D4460636D42068016821F0400174
:1023A0000160608D00282068406829D0C0F30901D1
:1023B000608DFF2804D9FF2020854FF0807308E04E
:1023C000608D2085E06A904201D0E36A01E04FF021
:1023D0000073009594F82820204600F037FA608DAD
:1023E000218D401A608594F84100222820680168F8
:1023F00003D041F48041016027E041F40041FAE755
:10240000800117D505E05E0618D4460616D4608D07
:1024100020B140212046FFF793FD16E02068416877
:10242000890112D4E16A914204D1416841F48041AA
:1024300041600AE02046FFF77DFE06E09A0604D4DC
:10244000800602D42046FFF71BFE84F8405000208F
:10245000F8BD00000000FFFFF8B5044690F840000A
:102460000E46012816D0012084F84000F043C10632
:102470004FF000076FEA02050ED4E9060CD421687C
:102480001020C861606C40F0040060642046FFF7D3
:1024900001FD55E00220F8BD410708D4690706D4C4
:1024A000206826F00406406A616A087007E0810728
:1024B0000FD4A9070DD4606A216800788862606A29
:1024C000401C6062208D401E2085608D401E60850E
:1024D00036E02A4A010629D4690627D4608D08B15E
:1024E000208D20B120684068800142D524E020681A
:1024F0004068C0F30901608DFF2805D9FF222285BD
:102500004FF0807300970DE0608D2085E06A0097A2
:10251000904203D0E36A94F8282003E094F828203E
:102520004FF00073204600F091F909E0400607D40F
:10253000680605D4608D80B140212046FFF700FD7C
:10254000F043800605D4A80603D431462046FFF7A1
:1025500097FD84F840700020F8BD2068416889012B
:10256000EED4E16A914204D1416841F48041416076
:10257000E6E72046FFF7DEFDE2E700000000FFFF90
:102580002DE9F84304461646DDE9089714489846B5
:10259000DAB200900023204600F058F93A46494646
:1025A000204600F0BBF9B8B9F5B2B8F1010F08D078
:1025B0002168300A88623A464946204600F0AEF962
:1025C00050B9206885624B46002240212046009782
:1025D00000F052F9002800D00120BDE8F883000087
:1025E000002000802DE9F843044616461548984619
:1025F000DDE90897DAB2C3020090204600F026F920
:102600003A464946204600F089F9B8B9F5B2B8F122
:10261000010F08D02168300A88623A4649462046B0
:1026200000F07CF950B9206885624B460022802179
:102630002046009700F020F9002800D00120BDE8D6
:10264000F8830000002000802DE9F041C36A0446B1
:1026500090F840000025012817D0012084F84000A0
:10266000CE43F7066FEA020049D4C20647D44604B7
:102670004FF0100201D506043ED4E66B4EB10704BC
:1026800007D4366876681EB103E00220BDE8F08109
:102690000125A66B26B1400402D43068406800B121
:1026A000DDB194F84100282802D1B3F1007F04D0B5
:1026B00094F84100292804D01EE02046FFF7B0FC22
:1026C0002CE013F5803F17D02068C2612046FFF749
:1026D000E1FB2046FFF7CCFD20E02068C261606C82
:1026E00040F00400606413B1B3F1807F16D1616CD7
:1026F0002046FFF725FC11E02068C2610EE032079A
:1027000005D4020703D42046FFF7D5FB06E0B20646
:1027100004D4800602D42046FFF732FD002084F85E
:102720004000B3E72DE9F0410446C06A0D4694F835
:10273000401001291ED0012184F84010E943424B8A
:102740005FEAC16C4FF080776FEA020631D4F2067F
:102750002FD4628D102182B12268D161616C41F069
:102760000401616408B1B84260D1616C2046FFF792
:10277000E7FB5BE00220BDE8F08194F84120282AC5
:1027800002D1B0F1007F04D094F84120292A05D06D
:102790000CE029462046FFF743FC47E0984205D06D
:1027A0002068C1612046FFF775FB3CE02068C161ED
:1027B0003CE04A0717D4720715D4618D71B12168C6
:1027C00025F00405496A626A1170616A491C6162F8
:1027D000218D491E2185618D491E6185618D29BB31
:1027E000984220D122E00A0706D4320704D42946B1
:1027F0002046FFF760FB19E0890717D4B10715D40D
:10280000618D69B1606A216800788862606A401CE5
:102810006062608D401E6085208D401E208505E031
:10282000B84200D010B92046FFF722FDE8438006E9
:1028300005D4B00603D429462046FFF7A1FC0020AA
:1028400084F8400097E700000000FFFFF0B505683E
:10285000059C68684FF48066064FC1F3090106EADB
:10286000545641EA02413E431943B04321430843D1
:102870006860F0BDFF63FF032DE9F0411D46174678
:102880000E460446DDF8188008E0681C06D0FEF706
:102890003FF8A0EB0800A8420BD855B1206880692A
:1028A00036EA000012D00020B842EED00020BDE889
:1028B000F08154F8440F40F0200044F8040920202F
:1028C00060700020A07020700120F0E70120EBE78D
:1028D00070B516460D4604460DE0324629462046A0
:1028E000FFF7F0FC08B1012070BDFEF711F8801B66
:1028F000A84207D835B120688069C0438006ECD46F
:10290000002070BD54F8440F40F0200044F8040942
:10291000202060700020A0702070E4E770B516469B
:102920000D4604460FE0324629462046FFF7CAFC12
:1029300008B1012070BD681C05D0FDF7E9FF801BC0
:10294000A84207D835B120688069C0438007EAD41F
:10295000002070BD54F8440F40F0200044F80409F2
:10296000202060700020A0702070E2E705484169D7
:10297000490005D50449C1600449C1600020704781
:1029800001207047002002403B2A19087F6E5D4CF1
:1029900002461C4800B5006800F4807300F05EF841
:1029A00019490869C0F300400028FAD1C82A26D97D
:1029B000486940F0020048614869EBB140F40060AA
:1029C0004861486940EAC2004861486940F4803083
:1029D00048610869C0F300400028FAD1486920F432
:1029E000FF604861486920F002004861486940F092
:1029F00000404861002000BD20F40060E0E70120B5
:102A000000BD0000000001400020024010B50B4650
:102A1000044600F023F8104A1069C0F30040002873
:102A2000FAD1506940F00100506118682060586880
:102A3000606001201169C1F300410029FAD1516998
:102A400081435161506920F001005061506940F0AC
:102A500000405061002010BD00200240074801697D
:102A6000C1F300410029FAD1416911F0004F03D0B0
:102A700003498160034981600020704700200240C3
:102A800023016745AB89EFCD114810B50F490160AF
:102A90001049416000210122C0E902120161416137
:102AA0008161C1610162FDF7CDFF00B1FEE7002148
:102AB0000748FDF733FF00B1FEE700210448FDF7AA
:102AC00058FF002800D0FEE710BD0000005800406D
:102AD000FC000020E49CD11010B588B000241148FF
:102AE0000094019402940394049405944FF080415F
:102AF000069401600421C0E90114491FC0E90314D0
:102B00008461FEF7F5FF4FF4805000906946054858
:102B1000FFF726F8049404A902480694FEF7B8FFCC
:102B200008B010BD3C0000200948084901604FF47E
:102B3000E1314160002181600C22C160C0E90412D2
:102B40008161C16101624162FFF7C6B80044004083
:102B50007C0000202DE9F041444C05468846E068A1
:102B60000026810728680DD0E16801F00301814249
:102B700016D1A8B1E0686968C0F30210401C884211
:102B80000ED120E0012804D0022805D0032807D167
:102B900008E02168890701E021684905002907DB71
:102BA00001265FE02168890302D421684903F5E723
:102BB000E1686A686FF00F0321F0730103EB021202
:102BC00011430143E160206820F080602060FDF740
:102BD0009FFE074605E000BFFDF79AFEC01B0228D6
:102BE00037D820680001F7D4B8F1000F18D0B8F139
:102BF000010F1ED0287D4FF07E41400801EB406060
:102C0000A96840EA01202169194A1140084320615E
:102C1000206840F080602060FDF77AFE07461AE0E9
:102C2000A868E9680002090940EA41402169114A9F
:102C3000EBE7288A1049400801EB4050A96840EAB8
:102C4000012021690D4AE0E7FDF762FEC01B022862
:102C500001D9032606E020680001F5D52069A9699D
:102C6000084320613046BDE8F081000000100240BA
:102C7000FF80FFF9FF80FDFF0000E0FFFF809FFF66
:102C80002DE9F0413D4C06468846E0680025810765
:102C900030680DD0E16801F00301814216D1A8B17E
:102CA000E0687168C0F30210401C88420ED120E039
:102CB000012804D0022805D0032807D108E02168A4
:102CC000890701E021684905002907DB012551E05A
:102CD0002168890302D421684903F5E7E168726835
:102CE0006FF00F0321F0730103EB02121143014354
:102CF000E160206820F080502060FDF709FE074663
:102D000005E000BFFDF704FEC01B022829D820689B
:102D10008000F7D4B8F1000F15D0307C4FF07E4121
:102D2000400801EB4060B16840EA01206169144A43
:102D3000114008436061206840F080502060FDF73A
:102D4000E7FD07460FE0B068F1680002090940EAB4
:102D5000414061690B4AEBE7FDF7DAFDC01B022831
:102D600001D9032506E020688000F5D56069716906
:102D7000084360612846BDE8F08100000010024071
:102D8000FF80FFF9FF80FDFFF8B51C4D06460024CB
:102D9000A86DC00002D5FEF711F90DE0A86D40F056
:102DA0008050A865A86D00F080500090FEF706F9ED
:102DB000A96D21F08051A965B0F5007F04D0802E67
:102DC00007D94FF003040AE0802E08D9A02E01D8BD
:102DD00004E001D1022402E0702E00D10124084851
:102DE000016821F0070121430160006800F007003D
:102DF000A04201D00120F8BD0020F8BD0010024023
:102E00000020024010B500F08BF8FDF793FB00287E
:102E10000AD1FDF7C5F910214FF09040FDF784FA73
:102E2000BDE81040FDF7BAB910BD00001C4A00B55E
:102E3000506940F0004050614FF400401061136A47
:102E4000FFF70CFE002829D1FFF790FD51694900DA
:102E50000DD41169C1F300410029FAD1D902116AD8
:102E600002D521F4801101E041F480111162516911
:102E700041F4003151611169C1F300410029FAD1D7
:102E8000516921F40031516118B9516941F0006173
:102E900051611169C1F300410029FAD100BD000060
:102EA0000020024000687047FDF7BEBF10B5B8B003
:102EB000442122A8FDF7E7F9142133A8FDF7E3F92F
:102EC00088216846FDF7DFF90220C1012591102114
:102ED000229026912C900121CDE92D010A212F91DC
:102EE0000721CDE93010329022A8FEF74DFB0F20CC
:102EF000002433900320CDE934043694042133A810
:102F00003794FEF73BFA82200F94009015946846A0
:102F1000FEF75CF84FF40070FEF71CF838B010BDF7
:102F20000D48016841F4700101600C48016841F0EE
:102F300001010160002181600268094B1A400260B2
:102F40008214C260026822F4802202608161024918
:102F5000C00380390860704788ED00E0001002402F
:102F6000FFFFF6EA05486FF0020102681161006890
:102F7000416B034A11444163FDF750BA3C00002005
:102F80000024F4002DE9F0470268264B264D274E19
:102F9000274F284C4FF0804A984209D0504507D01F
:102FA000A84205D0B04203D0B84201D0A04204D11B
:102FB00022F0700C4A6842EA0C02DFF87CC0DFF8AD
:102FC0007C80DFF87C9098420FD050450DD0A8420D
:102FD0000BD0B04209D0B84207D0A04205D060451E
:102FE00003D0404501D0484503D122F44075CA685A
:102FF0002A434D6922F080022A4302608A68C26235
:103000000A688262984207D0A04205D0604503D08A
:10301000404501D0484501D1096901630121416161
:10302000BDE8F087002C014000040040000800408B
:10303000000C0040003401400040014000440140C9
:103040000048014010B501F01F030121046A9940B6
:103050008C430462016A9A401143016210BD10B5AD
:10306000846842EA032224F47F440A4322438260B4
:1030700010BD826822F070020A4342F007018160AD
:10308000704710B5036A046A24F00104046284697D
:1030900024F0F00444EA021423F00A020A43846193
:1030A000026210BD10B5036A23F010030362836946
:1030B000046A23F4704343EA023224F0A00343EA93
:1030C00001118261016210BD90F82410C90706D079
:1030D00001684A68836A22F400321A434A6090F811
:1030E0002410890706D501684A68C36A22F4803231
:1030F0001A434A6090F82410490706D501684A68C7
:10310000036B22F480221A434A6090F824100907C6
:1031100006D501684A68436B22F400421A434A60AC
:1031200090F82410C90606D501688A68836B22F4DA
:1031300080521A438A6090F82410890606D50168E7
:103140008A68C36B22F400521A438A6090F82410F4
:10315000490611D501684A68036C22F480121A43AB
:103160004A60016CB1F5801F06D101684A68436C62
:1031700022F4C0021A434A6090F82410090606D5CA
:1031800001684A68806C22F4002202434A6070475A
:10319000F8B500260446C667FDF7BAFB0546206869
:1031A00000686FF07E47000708D52B4600224FF4D9
:1031B00000112046009700F067F960B920680068A8
:1031C00040070AD52B4600224FF480012046009785
:1031D00000F05AF908B10320F8BD20206067A0670D
:1031E00084F870600020F8BD2DE9F04105460168C3
:1031F00080682B69EC6918436B69002723431843E7
:10320000954A0B68954C234003430B60286841683E
:10321000EB6821F44051194341602968A869914243
:1032200001D02B6A18438B6823F4306303438B600F
:103230008B4B29688B4899420DD1D0F8880010F04B
:10324000030006D0012868D0022864D0032851D199
:1032500065E001244FE0844B99420BD1D0F88800FF
:1032600010F00C0055D0042857D0082853D00C2853
:1032700040D154E07D4B99420BD1D0F8880010F03A
:10328000300046D0102848D0202844D0302831D1F2
:1032900045E0774B99420BD1D0F8880010F0C00080
:1032A00037D0402839D0802835D0C02822D136E008
:1032B000704B99420ED1D0F8880010F4407028D09D
:1032C000B0F5807F29D0B0F5007F24D0B0F5407FE5
:1032D00010D124E091420DD1D0F8880010F4406064
:1032E00017D0B0F5806F18D0B0F5006F13D0B0F5DF
:1032F000406F14D01024604B00264FF400409142E0
:1033000045D174B1022C0FD0042C0FD0082C18D149
:103310000FE00024EFE70224EDE70424EBE70824A4
:10332000E9E7FEF7BBF803E0184602E0FEF7DAF83B
:10333000A8B36A6802EB4201814202D8B0EB023FB7
:1033400001D9012775E0DFF834815CB1022C0CD083
:10335000042C13D0082CF4D150082105401846F154
:10336000000105E0FEF79AF80AE050084449F5E745
:103370000023FCF74DFFA0F5407156E0FEF7B2F8D0
:103380006A68010E0302500818187141F0E7E969F4
:103390004FF6EF7881422FD1092CD2D200E048E0DD
:1033A000DFE804F006092005230505052600C8E727
:1033B000FEF774F801E0FEF783F84100D5F8040049
:1033C00001EB5001B1FBF0F080B2A0F110014145DA
:1033D000B7D84FF6F0710140C0F3420001432868AE
:1033E000C16026E027496868EAE7FEF77BF8E4E772
:1033F0004FF480316868E3E7092CA2D2DFE804F0DB
:1034000006091E052205050525009AE7FEF746F880
:1034100001E0FEF755F80146686801EB500100BF76
:10342000B1FBF0F080B2A0F11001414589D82968C4
:10343000C8602E6638466E66BDE8F081686803EBAA
:103440005001EDE7FEF74EF8E5E7696800EB510043
:10345000B0FBF1F0E6E7000000800040F369FFEF09
:103460000038014000100240004400400048004085
:10347000004C0040005000400024F400FFFC0F000E
:10348000000024F40048E8012DE9F0419846174671
:103490000E460446069D08E0681C06D0FDF738FA83
:1034A000A0EB0800A8420BD855B12068C06936EAE5
:1034B000000017D00020B842EED00020BDE8F08117
:1034C0002068016821F4D07101602068816821F0D2
:1034D0000101816020206067A067002084F87000EF
:1034E0000320EBE70120E6E70FB4054B10B503A975
:1034F000044A029800F03CF810BC5DF814FB000090
:10350000C5380008100000200FB4084B10B504A9FE
:1035100002AA039800F02CF8044602A9002000F04B
:10352000CBF9204610BC5DF814FB0000B938000848
:103530000907090E002804DB00F1E02080F80014E0
:10354000704700F00F0000F1E02080F8141D704774
:1035500002E008C8121F08C1002AFAD1704770475C
:10356000002001E001C1121F002AFBD170470000BA
:103570002DE9FF4F8BB088460546002606E025283A
:103580000BD0DDE90D1290476D1C761C28780028C1
:10359000F5D10FB0304600F063B90024A146A24631
:1035A0000122AE4900E0044315F8013F203B02FA36
:1035B00003F00842F7D128782A2810D06FF02F02A4
:1035C0002878A0F13001092915D809EB890102EB0F
:1035D000410144F0020400EB01096D1CF0E758F8CA
:1035E000041B5FEA010903D544F40054C9F1000942
:1035F00044F002046D1C28782E2817D115F8010F0D
:1036000044F004042A280ED06FF02F022878A0F18D
:10361000300109290AD80AEB8A0102EB410100EBCB
:10362000010A6D1CF2E758F804AB6D1C28786C2871
:103630000FD006DC4C2817D068280DD06A2814D18A
:1036400004E0742810D07A280FD10DE044F400145F
:103650000AE044F4801401E044F4401469788142A3
:1036600002D104F580146D1C6D1C2878692865D082
:1036700006DC00288DD0632827D0642806D15DE0C1
:103680006E2808D073282AD0752877D0DDE90D126E
:103690009047761CE0E0C4F30250022809D00328CA
:1036A0000DD0D8F8001004280DD00E6008F10408E1
:1036B000D2E0D8F80010F217C1E90062F6E7D8F8B6
:1036C00000100E80F2E70E70F0E718F8041B8DF87A
:1036D000001000208DF80100EB46012003E058F8AF
:1036E00004BB4FF0FF3061074FF0000701D40AE040
:1036F0007F1C57450DDA8742FADB1BF807100029BB
:10370000F6D106E07F1C8742FCDB1BF8071000297E
:10371000F8D1DDE90D23A9EB07008146214600F031
:10372000B4F83044C61904E0DDE90D121BF8010BB2
:1037300090477F1EF8D22146484688E058F8040B8F
:10374000C4F302514FF00A0B032900D100B204293F
:1037500000D140B2002802DA40422D2102E02105CA
:1037600005D52B218DF82410012104E006E0E107A6
:1037700010D02021F6E708AF089113E058F8040BA9
:10378000C4F302514FF00A0B032900D180B204297F
:1037900000D1C0B20021EEE75946FCF77FFD303181
:1037A00007F8011D0028F7D1ADEB070000F1200B51
:1037B000600702D524F4803401E04FF0010ADA45B5
:1037C00002DDAAEB0B0000E00020824600EB0B01BB
:1037D00008980144A9EB01000A90E00306D4DDE952
:1037E0000D2321460A9800F050F806444FF00009D6
:1037F00008E009A911F80900DDE90D12904709F167
:103800000109761C08998945F3DBE0030CD5DDE955
:103810000D2321460A9800F038F8064404E0DDE95B
:103820000D1230209047761CBAF10001AAF1010A6E
:10383000F5DC05E0DDE90D1217F8010B9047761C69
:10384000BBF10001ABF1010BF4DC0A982146DDE984
:103850000D2300F008F806446D1C97E609280100C6
:1038600030BCBDE8C08F2DE9F041044600251E465E
:103870001746880404D405E039462020B0476D1C63
:10388000641EF9D52846BDE8F0812DE9F0410446D3
:1038900000251E469046C80301D5302700E02027AA
:1038A000880404D505E041463846B0476D1C641EC7
:1038B000F9D52846BDE8F0810A68531C0B601070EA
:1038C0007047000004490A685206FCD5024AC1B29A
:1038D0000C321180704700001C4400400EB5FDF70B
:1038E000ABFAFFF7E3FAFFF7CFF8FFF71DF9FFF7A1
:1038F000F3F800211548FEF7A1F914480068416A61
:10390000134A114441630022142101208DE807006D
:1039100003230C2202211420FCF790FDFCF77EFD0E
:103920000C48017C0029FCD0FCF72EFE0AA0FFF712
:10393000DBFD0323142201210C20FCF7B1FDFCF771
:10394000F9FD00BFFCF720FEFCE700003C00002072
:103950000024F400280000205374617274696E67BB
:103960002075702062616E6B310A0000000000005B
:10397000000000000102030406070809A0860100F8
:10398000400D0300801A060000350C0040420F0075
:1039900080841E0000093D0000127A000024F4001B
:1039A00000366E010048E801006CDC0200000000F7
:1039B00001020304D43900080000002014000000B4
:1039C00050350008E83900081400002034050000D4
:1039D0006035000810000000010000000000000039
:0839E00000093D000000000099
:040000050800018965
:00000001FF
