:020000040800F2
:1000000000800120F11B0008D5100008D510000861
:10001000D5100008D5100008D51000080000000019
:10002000000000000000000000000000D5100008E3
:10003000D510000800000000D5100008A91F000816
:10004000D5100008D5100008D5100008D5100008FC
:10005000D5100008D5100008B51F0008C31F000800
:10006000D11F0008DF1F0008AD190008D5100008D7
:10007000D5100008D5100008D5100008D5100008CC
:10008000D5100008D5100008D5100008D5100008BC
:10009000D5100008D5100008D5100008ED1F000885
:1000A000D5100008D5100008D5100008D51000089C
:1000B000791F0008D5100008D5100008D5100008D9
:1000C000D510000895220008A9220008D5100008C4
:1000D000D5100008D5100008D5100008D51000086C
:1000E00017200008D5100008D5100008D51000080A
:1000F000D5100008D5100008D5100008D51000084C
:10010000D5100008D5100008D5100008D51000083B
:10011000D5100008D5100008D5100008D51000082B
:10012000D5100008D5100008D5100008D51000081B
:10013000D5100008D5100008D5100008D51000080B
:10014000D5100008D5100008D5100008D5100008FB
:10015000D5100008D5100008D5100008D5100008EB
:10016000D5100008D5100008D5100008D5100008DB
:10017000D5100008D5100008D510000800000000B8
:08018000D5100008D51000089D
:1001C00053B94AB9002908BF00281CBF4FF0FF31BE
:1001D0004FF0FF3000F07AB9ADF1080C6DE904CEB4
:1001E00000F006F8DDF804E0DDE9022304B0704712
:1001F0002DE9F0478C460D460446089E002B51D150
:100200008A4217466DD9B2FA82FEBEF1000F0BD0BA
:10021000CEF1200C01FA0EF520FA0CFC02FA0EF7D2
:100220004CEA050C00FA0EF44FEA174A250CBCFB09
:10023000FAF81FFA87F90AFB18CC45EA0C4508FBC7
:1002400009F3AB420AD9ED1908F1FF3280F023819E
:10025000AB4240F22081A8F102083D44ED1AA4B25D
:10026000B5FBFAF00AFB105544EA054400FB09F916
:10027000A14509D9E41900F1FF3380F00A81A145B5
:1002800040F2078102383C44A4EB090440EA0840EC
:100290000021002E61D024FA0EF400233460736034
:1002A000BDE8F0878B4207D9002E54D0002186E8A4
:1002B00021000846BDE8F087B3FA83F1002940F039
:1002C0008E80AB4202D3824200F2FA80841A65EB40
:1002D00003050120AC46002E3FD086E81010BDE893
:1002E000F08712B90127B7FBF2F7B7FA87FEBEF124
:1002F000000F34D1EB1B3A0C1FFA87FC0121B3FB32
:10030000F2F8250C02FB183345EA03450CFB08F311
:10031000AB4207D9ED1908F1FF3002D2AB4200F22F
:10032000D1808046ED1AA3B2B5FBF2F002FB105566
:1003300043EA05440CFB00FCA44507D9E41900F18D
:10034000FF3302D2A44500F2B8801846A4EB0C0497
:1003500040EA08409DE731463046BDE8F087CEF1DF
:10036000200405FA0EF307FA0EF720FA04F83A0C07
:1003700025FA04F448EA0308B4FBF2F14FEA184501
:1003800002FB11441FFA87FC45EA044501FB0CF30C
:10039000AB4200FA0EF409D9ED1901F1FF3080F0FB
:1003A0008A80AB4240F2878002393D44EB1A1FFA43
:1003B00088F5B3FBF2F002FB103345EA034500FB7E
:1003C0000CF3AB4207D9ED1900F1FF386FD2AB4205
:1003D0006DD902383D44EB1A40EA01418FE7C1F183
:1003E000200722FA07F88B4005FA01F448EA0303D4
:1003F00020FA07FE4FEA134CFD404EEA040EB5FB0F
:10040000FCF94FEA1E440CFB19551FFA83F844EA25
:10041000054509FB08F4AC4202FA01F200FA01FAC0
:1004200008D9ED1809F1FF3043D2AC4241D9A9F106
:1004300002091D442D1B1FFA8EFEB5FBFCF00CFBC0
:1004400010554EEA054400FB08F8A04507D9E4180A
:1004500000F1FF3529D2A04527D902381C4440EAD3
:100460000940A4EB0804A0FB02894C45C6464D4652
:1004700015D312D056B1BAEB0E0364EB050404FA9F
:1004800007F7CB401F43CC40376074600021BDE8C4
:10049000F0871846F8E69046E0E6C245EAD2B8EBA7
:1004A000020E69EB03050138E4E72846D7E740462A
:1004B00091E78146BEE7014678E702383C4445E7CC
:1004C000084608E7A8F102083D442BE7704700BF43
:1004D000000000000000000000000000000000001C
:1004E000000000000000000000000000000000000C
:1004F00000000000000000000000000000000000FC
:1005000090F800F06DE9024520F007016FF0000C53
:1005100010F0070491F820F040F049804FF00004FB
:100520006FF00700D1E9002391F840F000F10800D6
:1005300082FA4CF2A4FA8CF283FA4CF3A2FA8CF30E
:100540004BBBD1E9022382FA4CF200F10800A4FA75
:100550008CF283FA4CF3A2FA8CF3E3B9D1E90423C9
:1005600082FA4CF200F10800A4FA8CF283FA4CF300
:10057000A2FA8CF37BB9D1E9062301F1200182FABA
:100580004CF200F10800A4FA8CF283FA4CF3A2FAC0
:100590008CF3002BC6D0002A04BF04301A4612BACE
:1005A000B2FA82F2FDE8024500EBD2007047D1E9D1
:1005B000002304F00305C4F100004FEAC50514F060
:1005C000040F91F840F00CFA05F562EA05021CBF31
:1005D00063EA050362464FF00004A9E7000000004B
:1005E00001F0FF01102A2BDB10F0070F08D010F8E4
:1005F000013B013A8B422DD010F0070F42B3F6D1E8
:10060000F0B441EA012141EA014122F007047FF000
:1006100000070023F0E80256083C85EA010586EA57
:10062000010685FA47F5A3FA87F586FA47F6A5FA93
:1006300087F68EB9EED1F0BC01F0FF0102F007029F
:1006400032B110F8013B013A83EA010313B1F8D14A
:100650000020704701387047002D06BF354603382B
:10066000073815F0010F07D1013015F4807F02BF64
:10067000013015F4C03F0130F0BC0138704700BFB5
:10068000844641EA000313F003036DD1403A41D39D
:1006900051F8043B40F8043B51F8043B40F8043B5C
:1006A00051F8043B40F8043B51F8043B40F8043B4C
:1006B00051F8043B40F8043B51F8043B40F8043B3C
:1006C00051F8043B40F8043B51F8043B40F8043B2C
:1006D00051F8043B40F8043B51F8043B40F8043B1C
:1006E00051F8043B40F8043B51F8043B40F8043B0C
:1006F00051F8043B40F8043B51F8043B40F8043BFC
:1007000051F8043B40F8043B51F8043B40F8043BEB
:10071000403ABDD2303211D351F8043B40F8043B8B
:1007200051F8043B40F8043B51F8043B40F8043BCB
:1007300051F8043B40F8043B103AEDD20C3205D39B
:1007400051F8043B40F8043B043AF9D2043208D093
:10075000D2071CBF11F8013B00F8013B01D30B8805
:1007600003806046704700BF082A13D38B078DD0E3
:1007700010F003038AD0C3F10403D21ADB071CBFB5
:1007800011F8013B00F8013B80D331F8023B20F81F
:10079000023B7BE7043AD9D3013A11F8013B00F858
:1007A000013BF9D20B7803704B7843708B788370E0
:1007B0006046704781F0004102E000BF83F00043D3
:1007C00030B54FEA41044FEA430594EA050F08BFEC
:1007D00090EA020F1FBF54EA000C55EA020C7FEAB0
:1007E000645C7FEA655C00F0E2804FEA5454D4EB2D
:1007F0005555B8BF6D420CDD2C4480EA020281EAF7
:10080000030382EA000083EA010180EA020281EA2E
:100810000303362D88BF30BD11F0004F4FEA013180
:100820004FF4801C4CEA113102D0404261EB41018F
:1008300013F0004F4FEA03334CEA133302D0524215
:1008400063EB430394EA050F00F0A780A4F10104D1
:10085000D5F1200E0DDB02FA0EFC22FA05F280180B
:1008600041F1000103FA0EF2801843FA05F35941F1
:100870000EE0A5F120050EF1200E012A03FA0EFC70
:1008800028BF4CF0020C43FA05F3C01851EBE3719A
:1008900001F0004507D54FF0000EDCF1000C7EEBB7
:1008A00000006EEB0101B1F5801F1BD3B1F5001FF5
:1008B0000CD349085FEA30004FEA3C0C04F1010414
:1008C0004FEA445212F5800F80F09A80BCF1004F3D
:1008D00008BF5FEA500C50F1000041EB045141EABF
:1008E000050130BD5FEA4C0C404141EB010111F4C0
:1008F000801FA4F10104E9D191F0000F04BF01466B
:100900000020B1FA81F308BF2033A3F10B03B3F148
:1009100020020CDA0C3208DD02F1140CC2F10C02D8
:1009200001FA0CF021FA02F10CE002F11402D8BF36
:10093000C2F1200C01FA02F120FA0CFCDCBF41EA02
:100940000C019040E41AA2BF01EB0451294330BDD1
:100950006FEA04041F3C1CDA0C340EDC04F11404AE
:10096000C4F1200220FA04F001FA02F340EA030085
:1009700021FA04F345EA030130BDC4F10C04C4F1CB
:10098000200220FA02F001FA04F340EA03002946AB
:1009900030BD21FA04F0294630BD94F0000F83F4F5
:1009A000801306BF81F480110134013D4EE77FEAD8
:1009B000645C18BF7FEA655C29D094EA050F08BF24
:1009C00090EA020F05D054EA000C04BF1946104605
:1009D00030BD91EA030F1EBF0021002030BD5FEA49
:1009E000545C05D14000494128BF41F0004130BD71
:1009F00014F580043CBF01F5801130BD01F00045C5
:100A000045F0FE4141F470014FF0000030BD7FEA37
:100A1000645C1ABF194610467FEA655C1CBF0B4632
:100A2000024650EA013406BF52EA033591EA030F49
:100A300041F4002130BD00BF90F0000F04BF002141
:100A4000704730B54FF4806404F132044FF0000574
:100A50004FF0000150E700BF90F0000F04BF0021ED
:100A6000704730B54FF4806404F1320410F0004553
:100A700048BF40424FF000013EE700BF42004FEA4E
:100A8000E2014FEA31014FEA02701FBF12F07F43CB
:100A900093F07F4F81F06051704792F0000F14BFC8
:100AA00093F07F4F704730B54FF4607401F000450C
:100AB00021F0004120E700BF50EA010208BF704763
:100AC00030B54FF000050AE050EA010208BF704758
:100AD00030B511F0004502D5404261EB41014FF4C1
:100AE000806404F132045FEA915C3FF4DCAE4FF0C5
:100AF00003025FEADC0C18BF03325FEADC0C18BFAC
:100B0000033202EBDC02C2F1200300FA03FC20FAFC
:100B100002F001FA03FE40EA0E0021FA02F1144449
:100B2000C1E600BF70B54FF0FF0C4CF4E06C1CEA5E
:100B300011541DBF1CEA135594EA0C0F95EA0C0FD3
:100B400000F0DEF82C4481EA030621EA4C5123EA46
:100B50004C5350EA013518BF52EA033541F4801175
:100B600043F4801338D0A0FB02CE4FF00005E1FB28
:100B700002E506F00042E0FB03E54FF00006E1FB72
:100B800003569CF0000F18BF4EF0010EA4F1FF04B5
:100B9000B6F5007F64F5407404D25FEA4E0E6D41F5
:100BA00046EB060642EAC62141EA55514FEAC52006
:100BB00040EA5E504FEACE2EB4F1FD0C88BFBCF582
:100BC000E06F1ED8BEF1004F08BF5FEA500E50F133
:100BD000000041EB045170BD06F0004646EA0101F9
:100BE00040EA020081EA0301B4EB5C04C2BFD4EB2B
:100BF0000C0541EA045170BD41F480114FF0000E24
:100C0000013C00F3AB8014F1360FDEBF002001F091
:100C1000004170BDC4F10004203C35DA0C341BDC0B
:100C200004F11404C4F1200500FA05F320FA04F0DD
:100C300001FA05F240EA020001F0004221F0004111
:100C400010EBD37021FA04F642EB06015EEA430E84
:100C500008BF20EAD37070BDC4F10C04C4F12005B4
:100C600000FA04F320FA05F001FA04F240EA020067
:100C700001F0004110EBD37041F100015EEA430E38
:100C800008BF20EAD37070BDC4F1200500FA05F258
:100C90004EEA020E20FA04F301FA05F243EA0203D7
:100CA00021FA04F001F0004121FA04F220EA0200E6
:100CB00000EBD3705EEA430E08BF20EAD37070BD2C
:100CC00094F0000F0FD101F00046400041EB01010C
:100CD00011F4801F08BF013CF7D041EA060195F0EE
:100CE000000F18BF704703F00046520043EB0303A8
:100CF00013F4801F08BF013DF7D043EA0603704795
:100D000094EA0C0F0CEA135518BF95EA0C0F0CD09F
:100D100050EA410618BF52EA4306D1D181EA0301E5
:100D200001F000414FF0000070BD50EA410606BFDF
:100D30001046194652EA430619D094EA0C0F02D124
:100D400050EA013613D195EA0C0F05D152EA033669
:100D50001CBF104619460AD181EA030101F0004187
:100D600041F0FE4141F470014FF0000070BD41F0D0
:100D7000FE4141F4780170BD70B54FF0FF0C4CF4AA
:100D8000E06C1CEA11541DBF1CEA135594EA0C0FC9
:100D900095EA0C0F00F0A7F8A4EB050481EA030E16
:100DA00052EA03354FEA013100F088804FEA0333FD
:100DB0004FF0805545EA131343EA12634FEA0222CB
:100DC00045EA111545EA10654FEA00260EF000418C
:100DD0009D4208BF964244F1FD0404F5407402D2DE
:100DE0005B084FEA3202B61A65EB03055B084FEA6F
:100DF00032024FF480104FF4002CB6EB020E75EB6C
:100E0000030E22BFB61A754640EA0C005B084FEA93
:100E10003202B6EB020E75EB030E22BFB61A754610
:100E200040EA5C005B084FEA3202B6EB020E75EB5B
:100E3000030E22BFB61A754640EA9C005B084FEAD3
:100E40003202B6EB020E75EB030E22BFB61A7546E0
:100E500040EADC0055EA060E18D04FEA051545EACF
:100E600016754FEA06164FEAC30343EA52734FEA78
:100E7000C2025FEA1C1CC0D111F4801F0BD141EAF1
:100E800000014FF000004FF0004CB6E711F4801F56
:100E900004BF01430020B4F1FD0C88BFBCF5E06F36
:100EA0003FF6AFAEB5EB030C04BFB6EB020C5FEA46
:100EB000500C50F1000041EB045170BD0EF0004E9B
:100EC0004EEA113114EB5C04C2BFD4EB0C0541EACD
:100ED000045170BD41F480114FF0000E013C90E6CA
:100EE00045EA060E8DE60CEA135594EA0C0F08BF8E
:100EF00095EA0C0F3FF43BAF94EA0C0F0AD150EA8D
:100F000001347FF434AF95EA0C0F7FF425AF10461F
:100F100019462CE795EA0C0F06D152EA03353FF447
:100F2000FDAE1046194622E750EA410618BF52EAC4
:100F300043067FF4C5AE50EA41047FF40DAF52EA98
:100F400043057FF4EBAE12E74FF0FF3C06E000BF35
:100F50004FF0010C02E000BF4FF0010C4DF804CD42
:100F60004FEA410C7FEA6C5C4FEA430C18BF7FEA02
:100F70006C5C1BD001B050EA410C0CBF52EA430C30
:100F800091EA030F02BF90EA020F0020704710F1B0
:100F9000000F91EA030F58BF994208BF90422CBF3F
:100FA000D8176FEAE37040F0010070474FEA410C38
:100FB0007FEA6C5C02D150EA013C07D14FEA430C56
:100FC0007FEA6C5CD6D152EA033CD3D05DF8040BC7
:100FD000704700BF8446104662468C4619466346F9
:100FE00000E000BF01B5FFF7B7FF002848BF10F1D0
:100FF000000F01BD4DF808EDFFF7F4FF0CBF012015
:1010000000205DF808FB00BF4DF808EDFFF7EAFF90
:1010100034BF012000205DF808FB00BF4DF808ED4B
:10102000FFF7E0FF94BF012000205DF808FB00BF40
:101030004DF808EDFFF7CEFF94BF012000205DF8CA
:1010400008FB00BF4DF808EDFFF7C4FF34BF0120D7
:1010500000205DF808FB00BF4FEA410C7FEA6C5CA2
:1010600002D150EA013C0AD14FEA430C7FEA6C5CA2
:1010700002D152EA033C02D14FF0000070474FF01A
:10108000010070474FEA410212F5001215D211D546
:101090006FF47873B3EB625212D94FEAC12343F075
:1010A000004343EA505311F0004F23FA02F018BFF7
:1010B000404270474FF00000704750EA013005D1C0
:1010C00011F0004008BF6FF0004070474FF0000083
:1010D000704700BFFEE780B483B000AF0346FB71EA
:1010E000FB791B09DBB21A469B00D31A5B00DAB20C
:1010F000FB791344DBB218460C37BD4680BC704701
:1011000080B483B000AF0346FB71FB79084AA2FBB1
:101110000323DB08DBB21A46520013445B00DAB249
:10112000FB791344DBB218460C37BD4680BC7047D0
:10113000CDCCCCCC90B589B004AF0446084611465E
:101140001A462346FB710346BB710B467B7113465F
:101150003B71062307F110021344FA7903F8082CB7
:10116000052307F110021344BA7903F8082C04236D
:1011700007F1100213447A7903F8082C032307F1CE
:10118000100213443A7903F8082C022307F11002E5
:10119000134497F8202003F8082C012307F11002CC
:1011A000134497F8242003F8082C002307F11002B9
:1011B000134497F8282003F8082C0023FB7310E051
:1011C000FC7BFB7B07F11002134413F8083C184624
:1011D000FFF796FF03461A460D4B1A55FB7B01336A
:1011E000FB73FB7B062BEBD900BF01230293072384
:1011F0000193074B009301230022D021054801F001
:101200003FF90346002BF0D100BF1437BD4690BD17
:10121000F0090020D80A002080B582B002AF132365
:101220000193054B009301230022D021034801F0D4
:101230003BFA00BFBD4680BDF0090020D80A00205F
:10124000F0B599B006AF404B1B7CDBB2012B77D1D8
:101250003D4B00221A743C4B9B78013B062B4BD82C
:1012600001A252F823F000BF851200089B1200086B
:10127000A9120008B5120008C1120008D712000810
:10128000E31200083B46314A92E803001860043339
:10129000198002330A0C1A702EE03B462C4A92E861
:1012A000030083E8030027E03B462A4A07CA03C33A
:1012B0001A8021E03B46284A07CA03C31A701BE084
:1012C0003B46264A92E80300186004331980023333
:1012D0000A0C1A7010E03B46214A07CA03C31A7071
:1012E0000AE03B461F4A92E8030018600433198065
:1012F00002330A0C1A7000BF134B1B7803F5FA6215
:10130000114B5B781E46104BDB7819460E4B1B7950
:101310001C460D4B5B791D460B4B9B7907F1140066
:101320000493039502943B460193009133460E4982
:1013300005F00EFD07F1140319460C4805F09EFC5C
:1013400000BF4C37BD46F0BD040A0020F0C70008BE
:10135000F8C7000800C800080CC8000818C8000832
:1013600020C800082CC8000834C8000858C8000865
:1013700090B587B004AF0446084611461A46234686
:10138000FB710346BB710B467B7113463B710A230D
:101390001C46FB791846FFF7B3FE03461A462D4B51
:1013A0001A5509231C46BB791846FFF7A9FE0346C8
:1013B0001A46284B1A5508231C467B791846FFF716
:1013C0009FFE03461A46234B1A5507231C463B79BA
:1013D0001846FFF795FE03461A461E4B1A5500BFE6
:1013E000072399B207231A461A4B13444FF6FF728C
:1013F000029204220192009301230A46D02116484A
:1014000001F03EF80346002BEAD1144B5B7A43F01F
:101410000503DAB2114B5A72104B9B7A23F0030387
:10142000DAB20E4B9A7200BF0E239AB24FF6FF73D8
:101430000293022301930A4B00930123D021064813
:1014400001F01EF80346002BEED100BF0C37BD465D
:1014500090BD00BFF0090020D80A0020040A002037
:101460000D0A002080B582B000AF78607B681A68F2
:10147000314B1B689A425BD1304B01221A74002316
:101480001A462F4B9B5C1846FFF725FE03461A466B
:101490002A4B9A7101231A46294B9B5C1846FFF789
:1014A0001AFE03461A46254B5A7102231A46244B4C
:1014B0009B5C1846FFF70FFE03461A461F4B1A7136
:1014C00003231A461E4B9B5C1846FFF704FE034697
:1014D0001A461A4B9A7004231A46194B9B5C1846FD
:1014E000FFF7F9FD03461A46144BDA7005231A4636
:1014F000134B9B5C1846FFF7EEFD03461A460F4B55
:101500005A7006231A460E4B9B5C1846FFF7E3FD04
:1015100003461A46094B1A700E231A46084B9A5C6A
:10152000064B5A720F231A46054B9A5C034B9A726C
:1015300000BF0837BD4680BDD80A0020040A00203D
:10154000F009002080B483B000AF786000BF0C3792
:10155000BD4680BC704780B483B000AF78607B68C4
:101560001B6903F48033B3F5803F0CBF01230023D4
:10157000DBB218460C37BD4680BC704780B483B0E0
:1015800000AF78607B685B6943F000627B685A61FA
:1015900000BF0C37BD4680BC704780B483B000AF3D
:1015A00078607B685B6943F000427B685A6100BFEA
:1015B0000C37BD4680BC704780B483B000AF786004
:1015C0007B685B6903F0004318460C37BD4680BC5E
:1015D000704780B483B000AF786039607B683A6848
:1015E0009A6000BF0C37BD4680BC704780B483B0A2
:1015F00000AF78607B685B6943F001027B685A61E9
:1016000000BF0C37BD4680BC704780B483B000AFCC
:1016100078607B685B6923F001027B685A6100BFD8
:101620000C37BD4680BC704780B584B000AF034620
:10163000FB80284B1B6803F48073FB6000F0F6F816
:1016400000BF2548FFF787FF0346002BF9D1FB8831
:10165000C82B3AD9204A204B5B6943F002035361FF
:10166000FB68002B06D11C4A1B4B5B6923F400630B
:10167000536105E0184A184B5B6943F400635361FA
:101680001549154B5B69FA88D20013434B61124A26
:10169000114B5B6943F48033536100BF0E48FFF781
:1016A0005AFF0346002BF9D10B4A0B4B5B6923F41D
:1016B000FF635361084A084B5B6923F002035361DF
:1016C0000548FFF76AFF002300E0012318461037A2
:1016D000BD4680BD000001400020024080B584B0BE
:1016E00000AF786039600023FB6000F09FF800BF16
:1016F0001848FFF730FF0346002BF9D11548FFF7D4
:1017000075FF7B683A6812681A607B6804331A4672
:101710003B685B6813600123FB6000BF0D48FFF767
:101720001AFF0346002BF9D1FB68002B06D00949AC
:10173000084B5A69FB68DB4313404B610548FFF7D0
:1017400064FF0448FFF729FF002318461037BD4601
:1017500080BD00BF0020024080B483B000AF78603D
:101760007B681B6818460C37BD4680BC704700007C
:1017700080B582B000AF2C48FFF70FFF2A4B4FF423
:1017800000421A61284B1B6A3B6000F04FF8034689
:10179000FB71FB79002B42D100F068F80346FB7126
:1017A000214B5B6903F08043002B18D100BF1E481A
:1017B000FFF7D1FE0346002BF9D13B6803F48013F9
:1017C000002B06D0184A184B1B6A23F480131362AF
:1017D00005E0154A144B1B6A43F480131362124A46
:1017E000114B5B6943F40033536100BF0E48FFF7B0
:1017F000B2FE0346002BF9D10B4A0B4B5B6923F475
:1018000000335361FB79002B02D10748FFF7B6FE86
:1018100000BF0548FFF79FFE0346002BF9D1FB7977
:1018200018460837BD4680BD0020024080B500AF95
:1018300000BF0B48FFF78FFE0346002BF9D1084885
:10184000FFF7BAFE0346002B07D006490448FFF70E
:10185000C0FE05490248FFF7BCFE0023184680BDC4
:101860000020024023016745AB89EFCD80B400AF73
:10187000094B5B6903F08043002B07D0064B074AF6
:10188000DA60054B064ADA60002300E001231846BF
:10189000BD4680BC704700BF002002403B2A1908AB
:1018A0007F6E5D4C80B400AF044BDB681B0A03F015
:1018B00007031846BD4680BC704700BF00ED00E03E
:1018C00080B483B000AF0346FB7197F90730002B5B
:1018D0000BDB084997F907305B09FA7902F01F0220
:1018E000012000FA02F241F8232000BF0C37BD4668
:1018F00080BC704700E100E080B483B000AF0346D5
:101900003960FB7197F90730002B0ADB0D4997F915
:1019100007303A68D2B21201D2B20B4483F80023E6
:101920000AE00949FB7903F00F03043B3A68D2B29D
:101930001201D2B20B441A7600BF0C37BD4680BCF0
:10194000704700BF00E100E000ED00E080B489B026
:1019500000AFF860B9607A60FB6803F00703FB61D1
:10196000FB69C3F10703042B28BF0423BB61FB6998
:101970000433062B02D9FB69033B00E000237B61A3
:101980000122BB6902FA03F35A1EBB681A407B6945
:101990009A4001217B6901FA03F3591E7B680B40D1
:1019A000134318462437BD4680BC704780B500AF4E
:1019B000034B10225A61FFF7DBFE00BF80BD00BF62
:1019C0000004014080B586B000AF0346B9607A607C
:1019D000FB7300237B61FFF765FF78617A68B96864
:1019E0007869FFF7B3FF024697F90F3011461846A2
:1019F000FFF782FF00BF1837BD4680BD80B588B0B5
:101A000000AF78603960764A754BDB6C43F00103B8
:101A1000D364734BDB6C00237B61724B3B6101230E
:101A2000FB600023FB763B6803F47F43002B03D06D
:101A3000FB7E43F00803FB763A684FF2F003134055
:101A4000002B03D0FB7E43F00403FB763A684CF690
:101A5000CC431340002B03D0FB7E43F00203FB7604
:101A60003A684AF6AA231340002B03D0FB7E43F0CA
:101A70000103FB76FB7E7B6101227B699A403B6818
:101A80001340BB607B681B68FB617B695B000322C2
:101A900002FA03F3DB43FA691340FB613B6903F08D
:101AA00003027B695B0002FA03F3FA691343FB61EB
:101AB0007B68FA691A607B68DB68FB617B695B00A5
:101AC000032202FA03F3DB43FA691340FB617B69EB
:101AD0005B00FA6802FA03F3FA691343FB617B685F
:101AE000FA69DA603E4A3E4B1B6E43F0010313660F
:101AF0003B4B1B6E3C4A7B699B08023352F82330F8
:101B0000FB617B6903F003039B000F2202FA03F3DE
:101B1000DB43FA691340FB6133497B699B0802335D
:101B2000FA6941F82320314B1B68FB61BB68DB433A
:101B3000FA691340FB613B6903F48033002B03D047
:101B4000FA69BB681343FB61284AFB691360274BA2
:101B50005B68FB61BB68DB43FA691340FB613B696F
:101B600003F40033002B03D0FA69BB681343FB6115
:101B70001E4AFB6953601D4B9B68FB61BB68DB43DE
:101B8000FA691340FB613B6903F48013002B03D017
:101B9000FA69BB681343FB61144AFB699360134BFA
:101BA000DB68FB61BB68DB43FA691340FB613B699F
:101BB00003F40013002B03D0FA69BB681343FB61E5
:101BC0000A4AFB69D360002200210A20FFF7FAFECF
:101BD0000A20FFF775FE00BF2037BD4680BD00BF5D
:101BE00000100240000021100000014000040140EC
:101BF00080B500AFDFF848D0002103E0114B5B58FF
:101C0000435004311048114B42189A42F6D3104AFF
:101C100002E0002342F8043B0E4B9A42F9D304F051
:101C2000B3FF0AF0A5FD0346002B07D110214FF0AA
:101C30009040FFF7E3FE00F00FF8FEE700BF80BD25
:101C40000080012068CB000800000020B8090020B7
:101C5000B8090020500B002080B584B004AF03F019
:101C600045F900F03FF800F0D9FA00F001F900F072
:101C7000B1F80021184802F07DF9174B1A68164B8D
:101C80001B685B6A03F5740303F510535363002369
:101C90000293142301930123009303230C220221B6
:101CA0001420FFF747FAFFF7B7FA00BF0B4B1B7C76
:101CB000DBB2002BFAD0FFF7C3FA094805F040F871
:101CC0000323142201210C20FFF752FB0AF050FDE0
:101CD000FFF7B6FAFCE700BF180A0020040A00204C
:101CE0005CC8000880B5B8B000AF07F19C0344227F
:101CF0000021184604F074FF07F1880300221A60DF
:101D00005A609A60DA601A613B46882200211846C0
:101D100004F066FF0223C7F89C304FF48073C7F8C5
:101D2000A8301023C7F8AC300223C7F8C430022310
:101D3000C7F8C8300123C7F8CC300A23C7F8D03021
:101D40000723C7F8D4300223C7F8D8300223C7F8D6
:101D5000DC3007F19C03184603F03EF90346002BE4
:101D600001D000F0B5F80F23C7F888300323C7F877
:101D70008C300023C7F890300023C7F8943000233C
:101D8000C7F8983007F188030421184603F0D4FC03
:101D90000346002B01D000F09BF882233B60002318
:101DA000FB6300237B653B46184603F0C7FE0346F2
:101DB000002B01D000F08CF84FF4007004F044FDCB
:101DC0000346002B01D000F083F800BFE037BD468A
:101DD00080BD000080B588B000AF07F1100300227D
:101DE0001A605A609A60DA603B1D00221A605A60DD
:101DF0009A601E4B4FF080421A601C4B04225A60BE
:101E00001A4B00229A60194B4FF0FF32DA60174BE1
:101E100000221A61154B00229A61144802F07FF8E3
:101E20000346002B01D000F053F84FF480533B6180
:101E300007F1100319460D4802F03AF90346002B4A
:101E400001D000F045F800237B600023FB603B1DC0
:101E50001946064802F038FB0346002B01D000F07B
:101E600037F800BF2037BD4680BD00BF180A0020EC
:101E700080B500AF144B154A1A60134B4FF4E13292
:101E80005A60114B00229A600F4B0022DA600E4B11
:101E900000221A610C4B0C225A610B4B00229A61F2
:101EA000094B0022DA61084B00221A62064B00221D
:101EB0005A62054802F064FB0346002B01D000F093
:101EC00007F800BF80BD00BF580A00200044004052
:101ED00080B400AF00BFBD4680BC704780B487B0FF
:101EE00000AFF860B9607A6000237B6111E000BF49
:101EF0000D4BDB6903F04003002BF9D07B69BA6816
:101F00001344094A928C92B2D2B21A707B6901339F
:101F10007B617A697B689A42E9DB7B6818461C37EB
:101F2000BD4680BC704700BF0044004080B487B00D
:101F300000AFF860B9607A6000237B6110E000BFF9
:101F40000C4BDB6903F04003002BF9D009497B6996
:101F5000BA6813441B789BB20B857B6901337B61A4
:101F60007A697B689A42EADB7B6818461C37BD4673
:101F700080BC70470044004080B500AF094B1B682F
:101F80006FF002021A61074B1A68064B1B685B6B05
:101F900003F5740303F510535363FFF73DF900BFD6
:101FA00080BD00BF180A002080B500AF02F0F8FF26
:101FB00000BF80BD80B500AF012004F017FC00BF5A
:101FC00080BD80B500AF022004F010FC00BF80BDD2
:101FD00080B500AF042004F009FC00BF80BD80B5CF
:101FE00000AF082004F002FC00BF80BD80B500AF48
:101FF000202004F0FBFB402004F0F8FB802004F0DC
:10200000F5FB4FF4807004F0F1FB4FF4007004F026
:10201000EDFB00BF80BD80B500AF4FF4806004F0E1
:10202000E5FB4FF4006004F0E1FB4FF4805004F056
:10203000DDFB4FF4005004F0D9FB4FF4804004F076
:10204000D5FB4FF4004004F0D1FB00BF80BD000081
:1020500080B483B000AF0E4A0D4B1B6E43F00103FA
:1020600013660B4B1B6E03F001037B607B68084A11
:10207000074B9B6D43F080539365054B9B6D03F0BD
:1020800080533B603B6800BF0C37BD4680BC704747
:102090000010024080B584B000AF78607B681B6898
:1020A000B3F1804F13D10C4A0B4B9B6D43F00103EE
:1020B0009365094B9B6D03F00103FB60FB680022F5
:1020C00000211C2004F0E9FC1C2004F002FD00BFEC
:1020D0001037BD4680BD00BF0010024080B58AB0F9
:1020E00000AF786007F1140300221A605A609A600A
:1020F000DA601A617B681B68174A934228D1174A35
:10210000164B9B6D43F400339365144B9B6D03F4A6
:1021100000333B613B69114A104BDB6C43F0010318
:10212000D3640E4BDB6C03F00103FB60FB680C23F4
:102130007B610223BB610023FB6103233B62072316
:102140007B6207F1140319464FF0904004F0A6F9A2
:1021500000BF2837BD4680BD00440040001002404B
:1021600080B485B000AF7860114B1B68002B02D1A2
:102170000F4B104A1A600E4B1B68FB600C4B1A6821
:102180007B6813446A46934205D90B4B0C221A60B4
:102190004FF0FF3306E0064B1A687B681344044A8D
:1021A0001360FB6818461437BD4680BC704700BFFB
:1021B000B8090020500B0020280B002080B483B009
:1021C00000AF78604FF0FF3318460C37BD4680BC37
:1021D000704780B483B000AF786039603B684FF4DB
:1021E00000525A60002318460C37BD4680BC704729
:1021F00080B483B000AF7860012318460C37BD4629
:1022000080BC704780B485B000AFF860B9607A6078
:10221000002318461437BD4680BC704780B500AF18
:10222000194B1A4A1A60184B194A5A60164B002269
:102230009A60154B0122DA60134B00221A61124B8F
:1022400000225A61104B00229A610F4B0022DA6182
:102250000D4B00221A620C4800F084F80346002B54
:1022600000D0FEE70021084801F0C4FD0346002B22
:1022700000D0FEE70021044801F006FE0346002BD3
:1022800000D0FEE700BF80BDD80A00200058004003
:10229000E49CD11080B500AF024800F09BFA00BF6B
:1022A00080BD00BFD80A002080B500AF024800F012
:1022B000ABFA00BF80BD00BFD80A002080B58AB04D
:1022C00000AF786007F1140300221A605A609A6028
:1022D000DA601A617B681B681F4A934238D11F4A33
:1022E0001E4BDB6C43F00203D3641C4BDB6C03F02E
:1022F00002033B613B694FF440637B611223BB6186
:102300000123FB6103233B6204237B6207F1140377
:102310001946134804F0C2F8104A104B9B6D43F461
:10232000800393650D4B9B6D03F48003FB60FB689A
:1023300000220021212004F0B0FB212004F0C9FB81
:1023400000220021222004F0A8FB222004F0C1FB7F
:1023500000BF2837BD4680BD005800400010024035
:102360000004004880B582B000AF78607B68002B25
:1023700001D1012380E07B6893F84130DBB2002B70
:1023800006D17B68002283F840207868FFF796FF2B
:102390007B68242283F841207B681B687A68126876
:1023A000126822F001021A607B681B687A68526822
:1023B00022F070621A617B681B687A681268926802
:1023C00022F400429A607B68DB68012B07D17B68AE
:1023D0001B687A68926842F400429A6006E07B6863
:1023E0001B687A68926842F404429A607B68DB68F2
:1023F000022B04D17B681B684FF400625A607B6833
:102400001A687B681B685B6843F0007343F4004301
:1024100053607B681B687A681268D26822F40042B5
:10242000DA607B681B687A6811697A6852691143BF
:102430007A68926912020A43DA607B681B687A68DC
:10244000D1697A68126A0A431A607B681B687A68E5
:102450001268126842F001021A607B6800225A6416
:102460007B68202283F841207B6800221A637B6806
:10247000002283F84220002318460837BD4680BD5D
:1024800080B588B002AFF860084611461A46034688
:102490007B810B463B811346FB80FB6893F8413000
:1024A000DBB2202B40F0F9803B6A002B02D0BB8CC2
:1024B000002B05D1FB684FF400725A640123EDE054
:1024C000FB6893F84030012B01D10223E6E0FB6862
:1024D000012283F8402002F075FD78617B6900934A
:1024E000192301224FF40041F86801F064FA034611
:1024F000002B01D00123D1E0FB68212283F8412089
:10250000FB68402283F84220FB6800225A64FB6883
:102510003A6A5A62FB68BA8C5A85FB6800225A6391
:10252000F8883A8979897B690193BB6A00930346ED
:10253000F86800F0D3FD0346002B05D0FB680022AD
:1025400083F840200123A9E0FB685B8D9BB2FF2B41
:102550000ED9FB68FF221A85FB681B8DDAB27989D8
:10256000002300934FF08073F86801F047FB0FE001
:10257000FB685B8D9AB2FB681A85FB681B8DDAB22B
:102580007989002300934FF00073F86801F036FB5F
:102590007A69B96AF86801F04EFA0346002B01D057
:1025A00001237BE0FB681B68FA68526A12789A6222
:1025B000FB685B6A5A1CFB685A62FB685B8D9BB2C6
:1025C000013B9AB2FB685A85FB681B8D013B9AB2AE
:1025D000FB681A85FB685B8D9BB2002B34D0FB68CF
:1025E0001B8D002B30D17B690093BB6A00228021B8
:1025F000F86801F0E0F90346002B01D001234DE01B
:10260000FB685B8D9BB2FF2B0ED9FB68FF221A85FE
:10261000FB681B8DDAB27989002300934FF0807339
:10262000F86801F0EBFA0FE0FB685B8D9AB2FB688B
:102630001A85FB681B8DDAB27989002300934FF06D
:102640000073F86801F0DAFAFB685B8D9BB2002B2F
:102650009ED17A69B96AF86801F02DFA0346002B19
:1026600001D001231AE0FB681B682022DA61FB68B5
:102670001A68FB681B6859680A4B0B405360FB687B
:10268000202283F84120FB68002283F84220FB6867
:10269000002283F84020002300E002231846183768
:1026A000BD4680BD00E800FE80B588B002AFF8608E
:1026B000084611461A4603467B810B463B8113466A
:1026C000FB80FB6893F84130DBB2202B76D13B6A6C
:1026D000002B02D0BB8C002B05D1FB684FF400729D
:1026E0005A6401236BE0FB681B689B6903F4004399
:1026F000B3F5004F01D1022361E0FB6893F840304D
:10270000012B01D102235AE0FB68012283F840200B
:1027100002F058FC3861FB68222283F84120FB68F4
:10272000402283F84220FB6800225A64FB683A6A20
:102730005A62FB68BA8C5A85FB68234ADA62FB68E6
:10274000224A5A63FB685B8D9BB2FF2B06D9FB685C
:10275000FF221A854FF080737B6107E0FB685B8D79
:102760009AB2FB681A854FF000737B61F8883A894A
:1027700079893B690193192300930346F86800F0B7
:1027800001FD0346002B05D0FB68002283F84020A2
:10279000012314E0FB681B8DDAB279890C4B00939E
:1027A0007B69F86801F02AFAFB68002283F8402070
:1027B0000221F86801F04EFA002300E002231846D7
:1027C0001837BD4680BD00BF0000FFFF5729000835
:1027D0000024008080B584B000AF78607B681B68FF
:1027E0009B69FB607B681B681B68BB607B685B6BDD
:1027F000002B05D07B685B6BBA68F96878689847EE
:1028000000BF1037BD4680BD80B586B000AF786090
:102810007B681B689B697B617B681B681B683B61ED
:102820007B6903F48073002B0FD03B6903F08003B6
:10283000002B0AD07B685B6C43F001027B685A6412
:102840007B681B684FF48072DA617B6903F48063F4
:10285000002B0FD03B6903F08003002B0AD07B686C
:102860005B6C43F008027B685A647B681B684FF41A
:102870008062DA617B6903F40073002B0FD03B693F
:1028800003F08003002B0AD07B685B6C43F00202EC
:102890007B685A647B681B684FF40072DA617B685E
:1028A0005B6CFB60FB6803F00B03002B03D0F96843
:1028B000786800F079FF00BF1837BD4680BD80B44E
:1028C00083B000AF786000BF0C37BD4680BC704756
:1028D00080B483B000AF786000BF0C37BD4680BCC9
:1028E000704780B483B000AF786000BF0C37BD463E
:1028F00080BC704780B483B000AF786000BF0C37F5
:10290000BD4680BC704780B483B000AF78600B4692
:10291000FB7013463B8000BF0C37BD4680BC704740
:1029200080B483B000AF786000BF0C37BD4680BC78
:10293000704780B483B000AF786000BF0C37BD46ED
:1029400080BC704780B483B000AF786000BF0C37A4
:10295000BD4680BC704780B588B002AFF860B960F2
:102960007A60BB687B61FB6893F84030012B01D132
:10297000022309E1FB68012283F840207B6903F010
:102980001003002B12D07B6803F01003002B0DD036
:10299000FB681B681022DA61FB685B6C43F0040281
:1029A000FB685A64F86800F0BFFFDAE07B6903F067
:1029B0000403002B22D07B6803F00403002B1DD0FE
:1029C0007B6923F004037B61FB685B6AFA68126829
:1029D000526AD2B21A70FB685B6A5A1CFB685A6270
:1029E000FB681B8D013B9AB2FB681A85FB685B8D07
:1029F0009BB2013B9AB2FB685A85B2E07B6903F057
:102A00000203002B1DD07B6803F00203002B18D0BB
:102A1000FB681B68FA68526A12789A62FB685B6A04
:102A20005A1CFB685A62FB681B8D013B9AB2FB681B
:102A30001A85FB685B8D9BB2013B9AB2FB685A8595
:102A40008FE07B6903F08003002B5DD07B6803F08F
:102A50004003002B58D0FB685B8D9BB2002B41D00C
:102A6000FB681B8D002B3DD1FB681B685B689BB22C
:102A7000C3F309037B82FB685B8D9BB2FF2B0ED9EE
:102A8000FB68FF221A85FB681B8DDAB2798A002366
:102A900000934FF08073F86801F0B0F833E0FB6802
:102AA0005B8D9AB2FB681A85FB68DB6A13F5803F81
:102AB0000CD0FB681B8DDAB2FB68D86A798A0023D8
:102AC00000930346F86801F099F81CE0FB681B8D41
:102AD000DAB2798A002300934FF00073F86801F0AE
:102AE0008DF810E0FB681B685B6803F00073B3F1BE
:102AF000007F03D0F86800F01BFC32E04021F8684A
:102B000000F052FE2DE02CE07B6903F04003002B27
:102B100027D07B6803F04003002B22D0FB685B8D3D
:102B20009BB2002B19D1FB681B685B6803F0007334
:102B3000B3F1007F15D0FB68DB6A13F5803F08D145
:102B4000FB681B68FA681268526842F480425A6057
:102B500007E0F86800F0ECFB03E04021F86800F0C3
:102B600023FE7B6903F02003002B08D07B6803F071
:102B70002003002B03D07969F86800F053FCFB6850
:102B8000002283F84020002318461837BD4680BD38
:102B900080B586B000AFF860B9607A60FB68DB6A28
:102BA0003B61BB687B61FB6893F84030012B01D12E
:102BB0000223E6E0FB68012283F840207B6903F0F2
:102BC0001003002B4CD07B6803F01003002B47D080
:102BD000FB685B8D9BB2002B28D1FB6893F84130DA
:102BE000DBB2282B08D13B69B3F1007F04D17969AE
:102BF000F86800F085FD32E0FB6893F84130DBB205
:102C0000292B0ED13B6913F5803F0AD0FB681B6866
:102C10001022DA61F86800F087FEF86800F0C5FB62
:102C20001DE0FB681B681022DA6194E0FB681B68FA
:102C30001022DA61FB685B6C43F00402FB685A64A3
:102C40003B69002B04D03B69B3F1807F40F0838067
:102C5000FB685B6C1946F86800F0A6FD7BE07AE043
:102C60007B6903F00403002B33D07B6803F004037B
:102C7000002B2ED0FB685B8D9BB2002B1CD07B6998
:102C800023F004037B61FB685B6AFA681268526A8E
:102C9000D2B21A70FB685B6A5A1CFB685A62FB6806
:102CA0001B8D013B9AB2FB681A85FB685B8D9BB25A
:102CB000013B9AB2FB685A85FB685B8D9BB2002B87
:102CC0004BD13B6913F5803F47D0F86800F06DFBAE
:102CD00043E07B6903F00803002B09D07B6803F015
:102CE0000803002B04D07969F86800F09FFA35E0FA
:102CF0007B6903F00203002B30D07B6803F00203F2
:102D0000002B2BD0FB685B8D9BB2002B18D0FB688F
:102D10001B68FA68526A12789A62FB685B6A5A1CEE
:102D2000FB685A62FB685B8D9BB2013B9AB2FB6801
:102D30005A85FB681B8D013B9AB2FB681A850DE032
:102D40003B69B3F1807F02D03B69002B06D1F86864
:102D500000F02BFB02E000BF00E000BF7B6903F046
:102D60002003002B08D07B6803F02003002B03D046
:102D70007969F86800F0F0FBFB68002283F84020D6
:102D8000002318461837BD4680BD80B588B002AF15
:102D9000F860B9607A60FB6893F84030012B01D18C
:102DA0000223D9E0FB68012283F84020BB6803F0CE
:102DB0001003002B16D07B6803F01003002B11D0FA
:102DC000FB681B681022DA61FB685B6C43F004024D
:102DD000FB685A641221F86800F03CFFF86800F0C4
:102DE000A3FDB4E0BB6803F08003002B71D07B68C7
:102DF00003F04003002B6CD0FB681B68FA68126874
:102E0000126822F040021A60FB685B8D9BB2002BB7
:102E10004ED0FB681B685B689BB2C3F309037B82DF
:102E2000FB685B8D9BB2FF2B06D9FB68FF221A85DE
:102E30004FF080737B6110E0FB685B8D9AB2FB689A
:102E40001A85FB68DB6A13F5803F03D0FB68DB6AF9
:102E50007B6102E04FF000737B61FB681B8DDAB28F
:102E6000798A002300937B69F86800F0C7FEFB684D
:102E70005B8D9AB2FB681B8DD31A9AB2FB685A8598
:102E8000FB6893F84130DBB2222B08D1FB681B684A
:102E9000FA681268126842F400421A6057E0FB6850
:102EA0001B68FA681268126842F480421A604EE0A9
:102EB000FB681B685B6803F00073B3F1007F03D00D
:102EC000F86800F035FA42E04021F86800F06CFC48
:102ED0003DE0BB6803F04003002B28D07B6803F083
:102EE0004003002B23D0FB685B8D9BB2002B19D1D4
:102EF000FB681B685B6803F00073B3F1007F25D0AB
:102F0000FB68DB6A13F5803F08D1FB681B68FA6831
:102F10001268526842F480425A6017E0F86800F084
:102F200007FA13E04021F86800F03EFC0EE0BB68B1
:102F300003F02003002B0AD07B6803F02003002B52
:102F400005D0B968F86800F06DFA00E000BFFB68D2
:102F5000002283F84020002318461837BD4680BD64
:102F600080B586B000AFF860B9607A60FB68DB6A54
:102F70003B6100237B61FB6893F84030012B01D15A
:102F80000223A7E0FB68012283F84020BB6803F01E
:102F90001003002B7CD07B6803F01003002B77D04C
:102FA0007B6803F48043002B04D17B6803F4004367
:102FB000002B66D0FB68DB6B002B0CD07B6803F426
:102FC0000043002B07D0FB68DB6B1B685B68002BA2
:102FD00001D101237B61FB689B6B002B0CD07B68CC
:102FE00003F48043002B07D0FB689B6B1B685B6876
:102FF000002B01D101237B617B69012B28D1FB6868
:1030000093F84130DBB2282B08D13B69B3F1007F44
:1030100004D1B968F86800F073FB31E0FB6893F8FD
:103020004130DBB2292B0ED13B6913F5803F0AD02A
:10303000FB681B681022DA61F86800F075FCF8681C
:1030400000F0B3F91CE0FB681B681022DA611DE098
:10305000FB681B681022DA61FB685B6C43F00402BA
:10306000FB685A643B69002B03D03B69B3F1807F56
:103070000CD1FB685B6C1946F86800F095FB05E025
:1030800004E0FB681B681022DA611EE000BF1CE050
:10309000BB6803F00803002B09D07B6803F008032A
:1030A000002B04D0B968F86800F0C0F80DE0BB68E8
:1030B00003F02003002B08D07B6803F02003002BD3
:1030C00003D0B968F86800F047FAFB68002283F87B
:1030D0004020002318461837BD4680BD80B586B015
:1030E00002AFF860084611461A4603467B810B463C
:1030F0003B811346FB80FB88DAB27989204B009331
:103100004FF08073F86800F079FDFA69B969F868E2
:1031100000F091FC0346002B01D001232CE0FB883A
:10312000012B05D1FB681B683A89D2B29A6215E07F
:10313000FB681B683A89120A92B2D2B29A62FA69A3
:10314000B969F86800F077FC0346002B01D0012331
:1031500012E0FB681B683A89D2B29A62FB6900935D
:10316000BB6900228021F86800F025FC0346002B93
:1031700001D0012300E0002318461037BD4680BD72
:103180000020008080B586B002AFF8600846114686
:103190001A4603467B810B463B811346FB80FB8826
:1031A000DAB27989204B00930023F86800F026FDFD
:1031B000FA69B969F86800F03EFC0346002B01D0BB
:1031C00001232CE0FB88012B05D1FB681B683A89A1
:1031D000D2B29A6215E0FB681B683A89120A92B271
:1031E000D2B29A62FA69B969F86800F024FC034621
:1031F000002B01D0012312E0FB681B683A89D2B290
:103200009A62FB690093BB6900224021F86800F0D4
:10321000D2FB0346002B01D0012300E00023184617
:103220001037BD4680BD00BF0020008080B584B04F
:1032300000AF786039607B6893F84130DBB203F00F
:103240002803282B68D17B681B689B691B0CDBB2A9
:1032500003F00103FB737B681B689B691B0C9BB22B
:1032600003F0FE03BB817B681B689B689BB2C3F3C2
:1032700009037B817B681B68DB689BB203F0FE035C
:103280003B817B68DB68022B37D17B89DB099AB2F3
:10329000BB8953409BB203F00603002B1CD17B89F2
:1032A000BB817B689B6C5A1C7B689A647B689B6CB7
:1032B000022B39D17B6800229A647B681B68082244
:1032C000DA617B68002283F84020BA89FB7B1946CB
:1032D0007868FFF718FB27E03B89BB8104217868F9
:1032E00000F024FD7B68002283F84020BA89FB7B34
:1032F00019467868FFF707FB16E00421786800F0AC
:1033000015FD7B68002283F84020BA89FB7B1946B3
:103310007868FFF7F8FA07E07B681B680822DA6133
:103320007B68002283F8402000BF1037BD4680BD77
:1033300080B582B000AF78607B68002283F84220BD
:103340007B6893F84130DBB2212B15D17B682022BA
:1033500083F841207B6811221A637B6800225A633C
:103360000121786800F0E2FC7B68002283F84020AD
:103370007868FFF7A4FA14E07B68202283F84120E4
:103380007B6812221A637B6800225A6302217868E4
:1033900000F0CCFC7B68002283F840207868FFF7BF
:1033A00097FA00BF0837BD4680BD80B582B000AF38
:1033B00078607B68002283F842207B6893F8413074
:1033C000DBB2292B12D17B68282283F841207B684D
:1033D00021221A630121786800F0A8FC7B68002292
:1033E00083F840207868FFF77CFA17E07B6893F851
:1033F0004130DBB22A2B11D17B68282283F841208F
:103400007B6822221A630221786800F08FFC7B68B7
:10341000002283F840207868FFF76CFA00BF083775
:10342000BD4680BD80B584B000AF786039607B68F0
:103430001B682022DA617B681A687B681B68596800
:10344000434B0B4053607B6800221A637B68002269
:103450005A637B683F4ADA623B6803F01003002B33
:1034600009D07B681B681022DA617B685B6C43F0D3
:1034700004027B685A64786800F056FA0321786881
:1034800000F054FC7B685B6CFB607B6893F8413018
:10349000DBB2602B02D0FB68002B06D07B685B6C34
:1034A0001946786800F080F94EE07B6893F8413067
:1034B000DBB2212B21D17B68202283F841207B685D
:1034C00093F84230DBB2402B0BD17B68002283F8AB
:1034D00042207B68002283F840207868FEF732F8AB
:1034E00032E07B68002283F842207B68002283F868
:1034F00040207868FFF7E3F926E07B6893F84130D5
:10350000DBB2222B20D17B68202283F841207B680C
:1035100093F84230DBB2402B0BD17B68002283F85A
:1035200042207B68002283F840207868FDF79AFFEC
:103530000AE07B68002283F842207B68002283F83F
:1035400040207868FFF7C4F900BF1037BD4680BD42
:1035500000E800FE0000FFFF80B584B000AF786097
:1035600039607B681B681B68BB603B68FB607B68DD
:103570001B682022DA610721786800F0D7FB7B689E
:103580001B687A681268526842F400425A607B688D
:103590001A687B681B685968574B0B405360786802
:1035A00000F0C2F9BB6803F48043002B0BD07B68AA
:1035B0009B6B002B17D07B689B6B1B685B689AB278
:1035C0007B685A850FE0BB6803F40043002B0AD0E8
:1035D0007B68DB6B002B06D07B68DB6B1B685B6852
:1035E0009AB27B685A85FB6803F00403002B20D055
:1035F000FB6823F00403FB607B685B6A7A681268EF
:10360000526AD2B21A707B685B6A5A1C7B685A6233
:103610007B681B8D002B0CD07B681B8D013B9AB205
:103620007B681A857B685B8D9BB2013B9AB27B6895
:103630005A857B685B8D9BB2002B05D07B685B6CE9
:1036400043F004027B685A647B6800221A637B683B
:10365000002283F842207B6800225A637B685B6CFF
:10366000002B10D07B685B6C1946786800F09CF8E2
:103670007B6893F84130DBB2282B38D1F968786841
:1036800000F03EF833E07B68DB6A13F5803F11D031
:103690007868FFF78AFE7B68184ADA627B68202226
:1036A00083F841207B68002283F840207868FFF788
:1036B00037F91CE07B6893F84130DBB2222B0BD149
:1036C0007B68202283F841207B68002283F8402019
:1036D0007868FFF70FF90AE07B68202283F8412021
:1036E0007B68002283F840207868FFF7FAF800BF73
:1036F0001037BD4680BD00BF00E800FE0000FFFFA0
:1037000080B582B000AF786039607B68254ADA62A4
:103710007B6800221A637B68202283F841207B6843
:10372000002283F842207B6800225A633B6803F042
:103730000403002B22D07B685B6A7A681268526AA5
:10374000D2B21A707B685B6A5A1C7B685A627B68CB
:103750001B8D002B12D07B681B8D013B9AB27B68BE
:103760001A857B685B8D9BB2013B9AB27B685A8558
:103770007B685B6C43F004027B685A6407217868BD
:1037800000F0D4FA7B681B681022DA617B680022A3
:1037900083F840207868FFF7C3F800BF0837BD46BC
:1037A00080BD00BF0000FFFF80B584B000AF78602F
:1037B00039607B6893F84130FB737B68002283F8A3
:1037C00042207B68554ADA627B6800225A857B6812
:1037D0005A6C3B681A437B685A64FB7B282B05D0E4
:1037E000FB7B292B02D0FB7B2A2B0ED1032178688F
:1037F00000F09CFA7B68282283F841207B68002235
:103800001A637B68464A5A6313E00721786800F020
:103810008DFA7B6893F84130DBB2602B03D07B6874
:10382000202283F841207B6800221A637B680022F3
:103830005A637B681B681B6803F48043B3F5804FB1
:1038400023D17B681B687A681268126822F4804270
:103850001A607B689B6B002B5CD07B689B6B314A4A
:103860009A637B68002283F840207B689B6B184634
:1038700003F049F90346002B4CD07B689B6B9B6B94
:103880007A68926B1046984744E07B681B681B6817
:1038900003F40043B3F5004F23D17B681B687A68BB
:1038A0001268126822F400421A607B68DB6B002BFE
:1038B00030D07B68DB6B1B4A9A637B68002283F8FD
:1038C00040207B68DB6B184603F01DF90346002B94
:1038D00020D07B68DB6B9B6B7A68D26B1046984775
:1038E00018E07B6893F84130DBB2602B0BD17B682A
:1038F000202283F841207B68002283F840207868EA
:10390000FFF720F806E07B68002283F84020786803
:10391000FFF70FF800BF1037BD4680BD0000FFFF66
:10392000912B00086F39000880B483B000AF786035
:103930007B681B689B6903F00203022B03D17B6841
:103940001B6800229A627B681B689B6903F0010375
:10395000012B07D07B681B687A681268926942F075
:1039600001029A6100BF0C37BD4680BC704780B52C
:1039700084B000AF78607B689B6AFB60FB689B6BE0
:1039800000229A63FB68DB6B00229A63FB6893F862
:103990004130DBB2602B07D1FB68202283F8412045
:1039A000F868FEF7CFFF02E0F868FEF7C2FF00BF3D
:1039B0001037BD4680BD80B584B000AFF860B960F7
:1039C0003B601346FB7122E03B68B3F1FF3F1ED022
:1039D00001F0F8FA0246BB69D21A3B689A4202D853
:1039E0003B68002B13D1FB685B6C43F02002FB6843
:1039F0005A64FB68202283F84120FB68002283F888
:103A00004220FB68002283F8402001230FE0FB687E
:103A10001B689A69BB681A40BB689A420CBF0123B5
:103A20000023DBB21A46FB799A42CDD00023184618
:103A30001037BD4680BD80B584B000AFF860B96076
:103A40007A602CE07A68B968F86800F071F803468B
:103A5000002B01D001232AE0BB68B3F1FF3F1ED049
:103A600001F0B0FA02467B68D21ABB689A4202D8CB
:103A7000BB68002B13D1FB685B6C43F02002FB6832
:103A80005A64FB68202283F84120FB68002283F8F7
:103A90004220FB68002283F84020012307E0FB68F6
:103AA0001B689B6903F00203022BCBD1002318464D
:103AB0001037BD4680BD80B584B000AFF860B960F6
:103AC0007A6028E07A68B968F86800F031F803464F
:103AD000002B01D0012326E001F074FA02467B6836
:103AE000D21ABB689A4202D8BB68002B13D1FB687C
:103AF0005B6C43F02002FB685A64FB68202283F869
:103B00004120FB68002283F84220FB68002283F8F2
:103B10004020012307E0FB681B689B6903F020033A
:103B2000202BCFD1002318461037BD4680BD0000A2
:103B300080B584B000AFF860B9607A60FB681B683C
:103B40009B6903F01003102B51D122E0BB68B3F145
:103B5000FF3F1ED001F036FA02467B68D21ABB68DE
:103B60009A4202D8BB68002B13D1FB685B6C43F010
:103B70002002FB685A64FB68202283F84120FB681E
:103B8000002283F84220FB68002283F840200123B2
:103B90002EE0FB681B689B6903F02003202BD5D126
:103BA000FB681B681022DA61FB681B682022DA615F
:103BB000F868FFF7B9FEFB681A68FB681B6859686C
:103BC0000D4B0B405360FB685B6C43F00402FB68D9
:103BD0005A64FB68202283F84120FB68002283F8A6
:103BE0004220FB68002283F84020012300E00023EC
:103BF00018461037BD4680BD00E800FE80B485B091
:103C000000AFF8607B600B467B8113467B72FB68DC
:103C10001A68FB681B685968BB695B0D03F4806018
:103C20000B4B0343DB4319407B89C3F309007B7AC9
:103C30001B0403F47F0318437B681843BB690343E9
:103C40000B43536000BF1437BD4680BC704700BFB4
:103C5000FF63FF0380B485B000AF78600B467B80C4
:103C60000023FB607B685B6B2E4A934204D07B6829
:103C70005B6B2D4A934224D17B8803F00403002B15
:103C800003D0FB6843F0B803FB607B8803F01103AB
:103C9000112B03D1FB6843F09003FB607B8803F09A
:103CA0001203122B03D1FB6843F02003FB607B88D7
:103CB00003F01203122B28D1FB6843F04003FB6092
:103CC00023E07B8803F00403002B03D0FB6843F060
:103CD000B803FB607B8803F00103002B03D0FB6873
:103CE00043F0F203FB607B8803F00203002B03D058
:103CF000FB6843F0F403FB607B8803F01203122B94
:103D000003D1FB6843F02003FB607B681B687A6883
:103D100012681168FA680A431A6000BF1437BD467A
:103D200080BC70478B2D0008612F000880B485B0DF
:103D300000AF78600B467B800023FB607B8803F03C
:103D40000103002B0FD0FB6843F04203FB607B684C
:103D500093F84130DBB203F02803282B03D0FB6833
:103D600043F0B003FB607B8803F00203002B0FD00D
:103D7000FB6843F04403FB607B6893F84130DBB29F
:103D800003F02803282B03D0FB6843F0B003FB604B
:103D90007B8803F00403002B03D0FB6843F0B803D7
:103DA000FB607B8803F01103112B03D1FB6843F008
:103DB0009003FB607B8803F01203122B03D1FB6896
:103DC00043F02003FB607B8803F01203122B03D126
:103DD000FB6843F04003FB607B681B687A681268ED
:103DE0001168FA68D2430A401A6000BF1437BD4612
:103DF00080BC704780B483B000AF786039607B6866
:103E000093F84130DBB2202B38D17B6893F84030F7
:103E1000012B01D1022332E07B68012283F840208C
:103E20007B68242283F841207B681B687A681268CB
:103E3000126822F001021A607B681B687A681268B7
:103E4000126822F480521A607B681B687A681268D4
:103E500011683A680A431A607B681B687A681268BE
:103E6000126842F001021A607B68202283F8412028
:103E70007B68002283F84020002300E002231846DC
:103E80000C37BD4680BC704780B485B000AF786009
:103E900039607B6893F84130DBB2202B39D17B68E5
:103EA00093F84030012B01D1022333E07B680122DB
:103EB00083F840207B68242283F841207B681B68BC
:103EC0007A681268126822F001021A607B681B6827
:103ED0001B68FB60FB6823F47063FB603B681B029C
:103EE000FA681343FB607B681B68FA681A607B689A
:103EF0001B687A681268126842F001021A607B68D7
:103F0000202283F841207B68002283F84020002390
:103F100000E0022318461437BD4680BC704780B5C8
:103F200082B000AF78607B68002B01D101231DE0D7
:103F30007B6893F83D30DBB2002B06D17B68002212
:103F400083F83C207868FEF7A5F87B68022283F8A6
:103F50003D207B681A687B6804331946104600F0E0
:103F600061F97B68012283F83D2000231846083759
:103F7000BD4680BD80B584B000AF786039603B68D5
:103F80000C2B41D801A252F823F000BFC13F00081A
:103F9000094000080940000809400008D33F000814
:103FA000094000080940000809400008E53F0008F2
:103FB000094000080940000809400008F73F0008D0
:103FC0007B681B687A681268D26842F00202DA6085
:103FD0001BE07B681B687A681268D26842F00402B2
:103FE000DA6012E07B681B687A681268D26842F077
:103FF0000802DA6009E07B681B687A681268D26898
:1040000042F01002DA6000E000BF7B681B6801220A
:104010003968184600F034FA7B681B681E4A9342E0
:1040200013D07B681B681D4A93420ED07B681B68C7
:104030001B4A934209D07B681B681A4A934204D0FA
:104040007B681B68184A934201D1012300E00023DA
:10405000002B07D07B681B687A681268526C42F4A8
:1040600000425A647B681B689A68104B1340FB60DF
:10407000FB68062B0BD0FB68B3F5803F07D07B684D
:104080001B687A681268126842F001021A60002305
:1040900018461037BD4680BD002C01400034014059
:1040A0000040014000440140004801400700010079
:1040B00080B584B000AF786039607B6893F83C309D
:1040C000012B01D10223A8E07B68012283F83C2068
:1040D0007B68022283F83D207B681B689B68FB603D
:1040E000FB6823F4803323F07703FB60FB6823F441
:1040F0007F43FB607B681B68FA689A603B681B68BB
:10410000402B67D0402B0BD8102B73D0102B02D82C
:10411000002B6FD078E0202B6CD0302B6AD073E06E
:10412000702B0DD0702B04D8502B33D0602B41D086
:104130006AE0B3F5805F66D0B3F5005F17D063E047
:104140007B6818683B6899683B685A683B68DB681D
:1041500000F077F97B681B689B68FB60FB6843F0A5
:104160007703FB607B681B68FA689A604CE07B68A9
:1041700018683B6899683B685A683B68DB6800F0E0
:1041800060F97B681B687A681268926842F4804222
:104190009A6039E07B6818683B6859683B68DB685F
:1041A0001A4600F0D7F87B681B685021184600F0CB
:1041B0002EF929E07B6818683B6859683B68DB6822
:1041C0001A4600F0F5F87B681B686021184600F07D
:1041D0001EF919E07B6818683B6859683B68DB6822
:1041E0001A4600F0B7F87B681B684021184600F0BB
:1041F0000EF909E07B681A683B681B68194610468F
:1042000000F005F900E000BF7B68012283F83D2043
:104210007B68002283F83C20002318461037BD46F7
:1042200080BD000080B485B000AF786039607B68E5
:104230001B68FB607B683F4A934213D07B68B3F1F5
:10424000804F0FD07B683C4A93420BD07B683B4A3F
:10425000934207D07B683A4A934203D07B68394A3D
:10426000934208D1FB6823F07003FB603B685B68F6
:10427000FA681343FB607B682E4A93421FD07B6829
:10428000B3F1804F1BD07B682B4A934217D07B68D9
:104290002A4A934213D07B68294A93420FD07B6805
:1042A000284A93420BD07B68274A934207D07B6809
:1042B000264A934203D07B68254A934208D1FB6883
:1042C00023F44073FB603B68DB68FA681343FB60D0
:1042D000FB6823F080023B685B691343FB607B68EB
:1042E000FA681A603B689A687B68DA623B681A6809
:1042F0007B689A627B680F4A93420FD07B68114AB1
:1043000093420BD07B68104A934207D07B680F4AD8
:10431000934203D07B680E4A934203D13B681A69EB
:104320007B681A637B6801225A6100BF1437BD465F
:1043300080BC7047002C0140000400400008004091
:10434000000C0040003401400040014000440140A6
:104350000048014080B487B000AFF860B9607A606F
:10436000FB681B6A7B61FB681B6A23F00102FB6828
:104370001A62FB689B693B613B6923F0F0033B6178
:104380007B681B013A6913433B617B6923F00A0395
:104390007B617A69BB6813437B61FB683A699A6108
:1043A000FB687A691A6200BF1C37BD4680BC704743
:1043B00080B487B000AFF860B9607A60FB681B6AB0
:1043C00023F01002FB681A62FB689B697B61FB6843
:1043D0001B6A3B617B6923F470437B617B681B0331
:1043E0007A6913437B613B6923F0A0033B61BB689F
:1043F0001B013A6913433B61FB687A699A61FB6868
:104400003A691A6200BF1C37BD4680BC704780B451
:1044100085B000AF786039607B689B68FB60FB68A3
:1044200023F07003FB603A68FB68134343F0070313
:10443000FB607B68FA689A6000BF1437BD4680BC99
:10444000704780B487B000AFF860B9607A603B60B5
:10445000FB689B687B617B6923F47F437B613B68DE
:104460001A027B681A43BB6813437A6913437B6162
:10447000FB687A699A6000BF1C37BD4680BC7047F4
:1044800080B487B000AFF860B9607A60BB6803F0B1
:104490001F03012202FA03F37B61FB681A6A7B693E
:1044A000DB431A40FB681A62FB681A6ABB6803F0B8
:1044B0001F03796801FA03F31A43FB681A6200BF0D
:1044C0001C37BD4680BC704780B485B000AF7860B3
:1044D00039607B6893F83C30012B01D1022345E021
:1044E0007B68012283F83C207B68022283F83D2010
:1044F0007B681B685B68FB607B681B689B68BB60B4
:104500007B681B681C4A934204D07B681B681B4A6B
:10451000934208D1FB6823F47003FB603B685B683F
:10452000FA681343FB60FB6823F07003FB603B6891
:104530001B68FA681343FB60BB6823F08003BB6011
:104540003B689B68BA681343BB607B681B68FA686A
:104550005A607B681B68BA689A607B68012283F89E
:104560003D207B68002283F83C2000231846143746
:10457000BD4680BC704700BF002C014000340140A4
:1045800080B582B000AF78607B68002B01D1012339
:1045900040E07B685B6F002B06D17B68002283F8CC
:1045A00070207868FDF79AFD7B6824225A677B6843
:1045B0001B687A681268126822F001021A60786833
:1045C00000F02CF80346012B01D1012322E07B6887
:1045D0005B6A002B02D0786800F05AFB7B681B688E
:1045E0007A681268526822F490425A607B681B68AD
:1045F0007A681268926822F02A029A607B681B68C7
:104600007A681268126842F001021A60786800F055
:10461000E0FB034618460837BD4680BD2DE9B04390
:1046200088B000AF786000237B610023FB74002317
:10463000FB607B689A687B681B691A437B685B69CF
:104640001A437B68DB691343FB617B681A687B68EC
:104650001B681968AB4B0B40F9690B4313607B680F
:104660001B687A681268526822F440517A68D268EE
:104670000A435A607B689B69FB617B681B68A24A9E
:10468000934204D07B681B6AFA691343FB617B6821
:104690001B687A681268926822F43061FA690A43EA
:1046A0009A607B681B68994A934221D1984BD3F852
:1046B000883003F00303032B16D801A252F823F02D
:1046C000D1460008DD460008D7460008E34600084A
:1046D0000123FB76E8E00223FB76E5E00423FB768A
:1046E000E2E00823FB76DFE01023FB7600BFDBE08F
:1046F0007B681B68874A934234D1854BD3F8883056
:1047000003F00C030C2B29D801A252F823F000BFB0
:10471000454700085D4700085D4700085D47000801
:10472000514700085D4700085D4700085D470008E5
:104730004B4700085D4700085D4700085D470008DB
:10474000574700080023FB76AEE00223FB76ABE080
:104750000423FB76A8E00823FB76A5E01023FB7674
:1047600000BFA1E07B681B686B4A934220D1684B75
:10477000D3F8883003F03003102B0FD0102B02D861
:10478000002B05D010E0202B05D0302B09D00BE0FA
:104790000023FB7688E00223FB7685E00423FB768A
:1047A00082E00823FB767FE01023FB7600BF7BE0EE
:1047B0007B681B68594A934220D1554BD3F8883007
:1047C00003F0C003402B0FD0402B02D8002B05D0A4
:1047D00010E0802B05D0C02B09D00BE00023FB7626
:1047E00062E00223FB765FE00423FB765CE00823B3
:1047F000FB7659E01023FB7600BF55E07B681B6811
:10480000474A934224D1424BD3F8883003F4407393
:10481000B3F5807F12D0B3F5807F02D8002B07D08C
:1048200012E0B3F5007F06D0B3F5407F09D00BE06E
:104830000023FB7638E00223FB7635E00423FB7689
:1048400032E00823FB762FE01023FB7600BF2BE03D
:104850007B681B682C4A934224D12D4BD3F88830B7
:1048600003F44063B3F5806F12D0B3F5806F02D8C4
:10487000002B07D012E0B3F5006F06D0B3F5406F00
:1048800009D00BE00023FB760EE00223FB760BE061
:104890000423FB7608E00823FB7605E01023FB7673
:1048A00000BF01E01023FB767B681B68164A934229
:1048B00040F0ED80FB7E082B36D801A252F823F0A1
:1048C000E548000829490008ED4800082949000882
:1048D000F348000829490008294900082949000827
:1048E000FB48000801F09EF8F86020E00D4BFB60EB
:1048F0001DE001F003F8F86019E04FF40043FB609D
:1049000015E000BFF369FFEF008000400038014070
:10491000001002400044004000480040004C0040AD
:10492000005000400024F4000123FB7400BFFB682A
:10493000002B00F09E817B685A6813465B001A4486
:10494000FB689A4205D87B685B681A03FB689A4249
:1049500002D20123FB748CE1FB7E082B00F28480E1
:1049600001A252F823F000BF8D490008694A0008EF
:10497000CD490008694A0008014A0008694A000850
:10498000694A0008694A00083F4A000801F04AF8ED
:1049900003464FF000044FEA042949EA13694FEA3D
:1049A00003287B685B685B084FF0000418EB03008A
:1049B00049EB04017B685B684FF000041A4623460C
:1049C000FBF7FEFB03460C467B6150E07B685B68AF
:1049D0005B084FF00004AD494FF0000213EB0108F3
:1049E00044EB0209404649467B685B684FF000048F
:1049F0001A462346FBF7E4FB03460C467B6136E090
:104A000000F07CFF03461A464FF000031D0245EA02
:104A1000126514027B685B685B081A464FF000035E
:104A2000A01845EB03017B685B684FF000041A4651
:104A30002346FBF7C5FB03460C467B6117E07B680A
:104A40005B685B084FF0000413F5000044F10001BF
:104A50007B685B684FF000041A462346FBF7B0FB07
:104A600003460C467B6102E00123FB7400BF7B69B7
:104A7000B3F5407F08D37B69B3F5801F04D27B6810
:104A80001B687A69DA60F4E00123FB74F1E07B686B
:104A9000DB69B3F5004F7ED1FB7E082B5BD801A20A
:104AA00052F823F0C94A0008E74A0008054B0008FD
:104AB000574B0008214B0008574B0008574B000884
:104AC000574B00083F4B000800F0ACFF03465A006C
:104AD0007B685B685B081A447B685B68B2FBF3F336
:104AE0009BB27B613AE000F0B3FF03465A007B685B
:104AF0005B685B081A447B685B68B2FBF3F39BB2AC
:104B00007B612BE07B685B685B0803F1F47303F562
:104B100090437A685268B3FBF2F39BB27B611DE06D
:104B200000F0ECFE03465A007B685B685B081A44A1
:104B30007B685B68B2FBF3F39BB27B610EE07B6842
:104B40005B685B0803F580327B685B68B2FBF3F35C
:104B50009BB27B6102E00123FB7400BF7B690F2BDA
:104B600016D97B69B3F5803F12D27B699BB223F0E3
:104B70000F037B817B695B089BB203F007039AB24A
:104B80007B8913437B817B681B687A89DA6070E0DC
:104B90000123FB746DE0FB7E082B59D801A252F86B
:104BA00023F000BFC94B0008E54B0008014C00088A
:104BB000514C00081D4C0008514C0008514C000895
:104BC000514C0008394C000800F02CFF02467B686D
:104BD0005B685B081A447B685B68B2FBF3F39BB2CB
:104BE0007B6138E000F034FF02467B685B685B085D
:104BF0001A447B685B68B2FBF3F39BB27B612AE0EB
:104C00007B685B685B0803F5740303F510537A68EF
:104C10005268B3FBF2F39BB27B611CE000F06EFEC6
:104C200002467B685B685B081A447B685B68B2FB82
:104C3000F3F39BB27B610EE07B685B685B0803F576
:104C400000427B685B68B2FBF3F39BB27B6102E0DE
:104C50000123FB7400BF7B690F2B08D97B69B3F577
:104C6000803F04D27B681B687A69DA6001E0012327
:104C7000FB747B6800221A667B6800225A66FB7C04
:104C800018462037BD46BDE8B08300BF000024F4BD
:104C900080B483B000AF78607B685B6A03F0010387
:104CA000002B0AD07B681B687A681268526822F46D
:104CB00000317A68926A0A435A607B685B6A03F043
:104CC0000203002B0AD07B681B687A68126852685E
:104CD00022F480317A68D26A0A435A607B685B6A40
:104CE00003F00403002B0AD07B681B687A68126803
:104CF000526822F480217A68126B0A435A607B68FA
:104D00005B6A03F00803002B0AD07B681B687A6893
:104D10001268526822F400417A68526B0A435A6062
:104D20007B685B6A03F01003002B0AD07B681B686A
:104D30007A681268926822F480517A68926B0A430A
:104D40009A607B685B6A03F02003002B0AD07B68C3
:104D50001B687A681268926822F400517A68D26BF4
:104D60000A439A607B685B6A03F04003002B1AD009
:104D70007B681B687A681268526822F480117A682E
:104D8000126C0A435A607B681B6CB3F5801F0AD112
:104D90007B681B687A681268526822F4C0017A68DE
:104DA000526C0A435A607B685B6A03F08003002BF5
:104DB0000AD07B681B687A681268526822F4002166
:104DC0007A68926C0A435A6000BF0C37BD4680BCBB
:104DD000704780B586B002AF78607B680022DA67E2
:104DE00000F0F0F8F8607B681B681B6803F00803AC
:104DF000082B0ED16FF07E430093FB6800224FF426
:104E00000011786800F02AF80346002B01D0032334
:104E100020E07B681B681B6803F00403042B0ED1A1
:104E20006FF07E430093FB6800224FF480017868A6
:104E300000F014F80346002B01D003230AE07B683E
:104E400020225A677B6820229A677B68002283F8B9
:104E50007020002318461037BD4680BD80B584B051
:104E600000AFF860B9603B601346FB712AE0BB6994
:104E7000B3F1FF3F26D000F0A5F802463B68D21AF6
:104E8000BB699A4202D8BB69002B1BD1FB681B6827
:104E9000FA681268126822F4D0721A60FB681B6804
:104EA000FA681268926822F001029A60FB68202278
:104EB0005A67FB6820229A67FB68002283F87020FB
:104EC00003230FE0FB681B68DA69BB681A40BB6804
:104ED0009A420CBF01230023DBB21A46FB799A42A7
:104EE000C5D0002318461037BD4680BD80B582B0BE
:104EF00000AF0023FB710C4A0B4B1B6843F480731B
:104F00001360032001F0BEFD002000F00FF80346FF
:104F1000002B02D00123FB7101E0FDF799F8FB792A
:104F200018460837BD4680BD0020024080B584B0D9
:104F300000AF78600023FB73164B1B68002B22D058
:104F4000154B1A68134B1B684FF47A71B1FBF3F3DE
:104F5000B2FBF3F3184601F0CAFD0346002B0FD154
:104F60007B680F2B09D8002279684FF0FF3001F0E1
:104F700094FD0A4A7B68136007E00123FB7304E099
:104F80000123FB7301E00123FB73FB7B1846103701
:104F9000BD4680BD04000020080000200000002065
:104FA00080B400AF054B1A68054B1B681344034AD5
:104FB000136000BFBD4680BC704700BF240B0020BB
:104FC0000400002080B400AF024B1B681846BD46A9
:104FD00080BC7047240B002080B588B000AF78609B
:104FE0007B68002B01D101239DE3A44B9B6803F058
:104FF0000C03BB61A14BDB6803F003037B617B689F
:105000001B6803F01003002B00F0E180BB69002B4C
:1050100007D0BB690C2B40F088807B69012B40F0E6
:105020008480964B1B6803F00203002B05D07B683D
:105030009B69002B01D1012375E37B681A6A8F4BB2
:105040001B6803F00803002B04D08C4B1B6803F093
:10505000F00305E0894BD3F894301B0903F0F0030B
:105060009A4223D97B681B6A184600F007FD034665
:10507000002B01D0012356E3804A804B1B6843F08C
:10508000080313607D497D4B1B6823F0F0027B68A9
:105090001B6A13430B607949784B5B6823F47F42AA
:1050A0007B68DB691B0213434B6022E0734A734B3E
:1050B0001B6843F0080313607049704B1B6823F0B2
:1050C000F0027B681B6A13430B606C496B4B5B6897
:1050D00023F47F427B68DB691B0213434B607B68D0
:1050E0001B6A184600F0CAFC0346002B01D00123BE
:1050F00019E300F003FC0146604B9B681B0903F0B9
:105100000F035F4AD35C03F01F0321FA03F35D4AE8
:1051100013605D4B1B681846FFF708FF0346FB73DF
:10512000FB7B002B52D0FB7BFDE27B689B69002B55
:1051300032D0524A514B1B6843F001031360FFF712
:1051400041FF386108E0FFF73DFF02463B69D31A93
:10515000022B01D90323E6E2484B1B6803F002034C
:10516000002BF0D0454A454B1B6843F00803136001
:105170004249424B1B6823F0F0027B681B6A1343D1
:105180000B603E493D4B5B6823F47F427B68DB69E3
:105190001B0213434B601AE0384A384B1B6823F05C
:1051A00001031360FFF70EFF386108E0FFF70AFF05
:1051B00002463B69D31A022B01D90323B3E22F4BDA
:1051C0001B6803F00203002BF0D100E000BF7B68F6
:1051D0001B6803F00103002B74D0BB69082B05D0BA
:1051E000BB690C2B0ED17B69032B0BD1234B1B68A6
:1051F00003F40033002B64D07B685B68002B60D124
:10520000012390E27B685B68B3F5803F06D11B4ABF
:105210001A4B1B6843F4803313601DE07B685B68A6
:10522000B3F5A02F0CD1154A144B1B6843F480230F
:105230001360124A114B1B6843F4803313600BE078
:105240000E4A0E4B1B6823F4803313600B4A0B4B42
:105250001B6823F4802313607B685B68002B1CD0E1
:10526000FFF7B0FE386111E0FFF7ACFE02463B6984
:10527000D31A642B0AD9032355E200BF0010024061
:1052800070C800080800002000000020AE4B1B681A
:1052900003F40033002BE7D014E0FFF793FE3861EE
:1052A00008E0FFF78FFE02463B69D31A642B01D951
:1052B000032338E2A44B1B6803F40033002BF0D126
:1052C00000E000BF7B681B6803F00203002B60D086
:1052D000BB69042B05D0BB690C2B19D17B69022B50
:1052E00016D1994B1B6803F48063002B05D07B68B3
:1052F000DB68002B01D1012315E29349924B5B68D7
:1053000023F0F8527B681B691B0613434B6040E097
:105310007B68DB68002B23D08B4A8B4B1B6843F4E4
:1053200080731360FFF74EFE386108E0FFF74AFE16
:1053300002463B69D31A022B01D90323F3E1824BC6
:105340001B6803F48063002BF0D07F497E4B5B68C1
:1053500023F0F8527B681B691B0613434B6018E06F
:10536000794A794B1B6823F480731360FFF72AFE98
:10537000386108E0FFF726FE02463B69D31A022B8C
:1053800001D90323CFE1704B1B6803F48063002B2A
:10539000F0D17B681B6803F00803002B3CD07B68CE
:1053A0005B69002B1CD0684A674BD3F8943043F0FC
:1053B0000103C2F89430FFF705FE386108E0FFF7FB
:1053C00001FE02463B69D31A022B01D90323AAE14D
:1053D0005D4BD3F8943003F00203002BEFD01BE0B9
:1053E000594A594BD3F8943023F00103C2F8943052
:1053F000FFF7E8FD386108E0FFF7E4FD02463B698E
:10540000D31A022B01D903238DE14F4BD3F89430EB
:1054100003F00203002BEFD17B681B6803F0040349
:10542000002B00F0A5800023FB77474B9B6D03F01A
:105430008053002B0DD1444A434B9B6D43F0805366
:105440009365414B9B6D03F08053BB60BB680123A8
:10545000FB773E4B1B6803F48073002B18D13B4A4B
:105460003A4B1B6843F480731360FFF7ABFD386160
:1054700008E0FFF7A7FD02463B69D31A022B01D9CA
:10548000032350E1314B1B6803F48073002BF0D0F1
:105490007B689B68012B08D12B4A2B4BD3F89030AB
:1054A00043F00103C2F8903024E07B689B68052B31
:1054B00010D1254A244BD3F8903043F00403C2F8AE
:1054C0009030214A204BD3F8903043F00103C2F8CA
:1054D00090300FE01C4A1C4BD3F8903023F00103AE
:1054E000C2F89030184A184BD3F8903023F00403D8
:1054F000C2F890307B689B68002B16D0FFF762FDE6
:1055000038610AE0FFF75EFD02463B69D31A41F2BB
:105510008832934201D9032305E10B4BD3F8903035
:1055200003F00203002BEDD019E0FFF74BFD3861CB
:105530000EE0FFF747FD02463B69D31A41F288327D
:10554000934205D90323EEE00010024000700040B2
:10555000774BD3F8903003F00203002BE9D1FB7FA7
:10556000012B05D1724A724B9B6D23F080539365DA
:105570007B689B6A002B00F0D580BB690C2B00F088
:105580008E807B689B6A022B5BD1694A684B1B68E3
:1055900023F080731360FFF715FD386108E0FFF713
:1055A00011FD02463B69D31A022B01D90323BAE04D
:1055B0005F4B1B6803F00073002BF0D15C485C4B21
:1055C000DA685C4B13407A68D16A7A68126B013AE8
:1055D000120111437A68526B120211437A68D26B3E
:1055E0005208013A520511437A68126C5208013A86
:1055F000520611437A68926B120952040A4313430C
:10560000C3604B4A4A4B1B6843F080731360484A9F
:10561000474BDB6843F08073D360FFF7D3FC3861FE
:1056200008E0FFF7CFFC02463B69D31A022B01D9F1
:10563000032378E03E4B1B6803F00073002BF0D08F
:1056400070E03B4A3A4B1B6823F080731360384B81
:105650001B6803F02053002B05D1354A344BDB681F
:1056600023F00303D360324A314BDB6823F08873A5
:1056700023F48033D360FFF7A5FC386108E0FFF71F
:10568000A1FC02463B69D31A022B01D903234AE04D
:10569000274B1B6803F00073002BF0D142E07B68BE
:1056A0009B6A012B01D101233DE0214BDB687B612B
:1056B0007B6903F003027B68DB6A9A4230D17B6925
:1056C00003F070027B681B6B013B1B019A4227D1E0
:1056D0007B6903F4FE427B685B6B1B029A421FD11D
:1056E0007B6903F400337A68926B072A14BF0122A6
:1056F0000022D2B2934213D17B6903F4C0027B68CB
:10570000DB6B5B08013B5B059A4209D17B6903F0C7
:10571000C0627B681B6C5B08013B5B069A4201D050
:10572000012300E0002318462037BD4680BD00BF9E
:10573000001002408C809DF980B584B000AF786085
:1057400039607B68002B01D10123C8E0664B1B68E0
:1057500003F007023B689A4210D26349624B1B6810
:1057600023F007023B6813430B605F4B1B6803F099
:1057700007023B689A4201D00123B0E07B681B68B6
:1057800003F00103002B4CD07B685B68032B07D12F
:10579000564B1B6803F00073002B21D101239EE0C0
:1057A0007B685B68022B07D1504B1B6803F4003306
:1057B000002B15D1012392E07B685B68002B07D199
:1057C0004A4B1B6803F00203002B09D1012386E03A
:1057D000464B1B6803F48063002B01D101237EE05C
:1057E0004249424B9B6823F003027B685B6813438A
:1057F0008B60FFF7E7FBF8600AE0FFF7E3FB024688
:10580000FB68D31A41F28832934201D9032366E040
:10581000364B9B6803F00C027B685B689B009A42E6
:10582000EBD17B681B6803F00203002B08D02F49E3
:105830002E4B9B6823F0F0027B689B6813438B60C0
:10584000294B1B6803F007023B689A4210D926498E
:10585000254B1B6823F007023B6813430B60224B68
:105860001B6803F007023B689A4201D0012336E02F
:105870007B681B6803F00403002B08D01B491B4BFB
:105880009B6823F4E0627B68DB6813438B607B6872
:105890001B6803F00803002B09D01449134B9B68C5
:1058A00023F460527B681B69DB0013438B6000F0BC
:1058B00025F801460D4B9B681B0903F00F030C4AAA
:1058C000D35C03F01F0321FA03F30A4A13600A4B67
:1058D0001B681846FFF72AFB0346FB72FB7A184643
:1058E0001037BD4680BD00BF0020024000100240BE
:1058F00070C80008080000200000002080B489B0B3
:1059000000AF0023FB610023BB613D4B9B6803F0AC
:105910000C033B613A4BDB6803F00303FB603B691C
:10592000002B05D03B690C2B21D1FB68012B1ED12C
:10593000334B1B6803F00803002B07D1304BD3F81F
:1059400094301B0A03F00F03FB6105E02C4B1B682E
:105950001B0903F00F03FB612A4AFB6952F823304D
:10596000FB613B69002B0DD1FB69BB610AE03B6920
:10597000042B02D1244BBB6104E03B69082B01D10D
:10598000224BBB613B690C2B33D11D4BDB6803F011
:105990000303BB60BB68022B02D0032B03D005E0DE
:1059A000194B7B6105E0194B7B6102E0FB697B6170
:1059B00000BF134BDB681B0903F0070301337B6057
:1059C0000F4BDB681B0A03F07F037A6902FB03F2CB
:1059D0007B68B2FBF3F37B61094BDB685B0E03F082
:1059E000030301335B003B607A693B68B2FBF3F36E
:1059F000BB61BB6918462437BD4680BC704700BFF9
:105A00000010024088C800080024F40000127A0048
:105A100080B400AF024B1B681846BD4680BC70477F
:105A20000800002080B500AFFFF7F2FF0146064BEB
:105A30009B681B0A03F00703044AD35C03F01F03AF
:105A400021FA03F3184680BD0010024080C8000808
:105A500080B500AFFFF7DCFF0146064B9B68DB0A11
:105A600003F00703044AD35C03F01F0321FA03F396
:105A7000184680BD0010024080C8000880B586B07E
:105A800000AF786000233B612A4B9B6D03F080538D
:105A9000002B03D000F0CCFE786114E0254A254BA2
:105AA0009B6D43F080539365224B9B6D03F08053B5
:105AB000FB60FB6800F0BCFE78611E4A1D4B9B6DCD
:105AC00023F0805393657B69B3F5007F0BD17B682E
:105AD000802B19D97B68A02B02D902233B6113E0EC
:105AE00001233B6110E07B68802B02D903233B61DB
:105AF0000AE07B68802B02D102233B6104E07B68D3
:105B0000702B01D101233B610B490B4B1B6823F028
